:1000000000000120A9390000D1390000D3390000D7
:10001000D5390000D7390000D939000000000000B0
:10002000000000000000000000000000DB390000BC
:10003000DD39000000000000DF390000E139000078
:1000400011140000E339000095250000E339000099
:10005000E3390000E3390000C9170000E33900006C
:10006000E3390000E3390000E3390000E339000020
:10007000E3390000E3390000E3390000E339000010
:10008000E339000029090000E3390000E3390000EA
:10009000ED090000E3390000E3390000E339000016
:1000A000E3390000E3390000E3390000E3390000E0
:1000B000251F0000E33900000000000000000000E0
:1000C000E3390000AD1F000035200000E3390000D7
:1000D000E3390000E3390000E339000000000000CC
:1000E0000000000000000000000000000000000010
:1000F0000000000000000000000000000000000000
:1001000000000000000000000000000000000000EF
:1001100000000000000000000000000000000000DF
:1004000010B5054C237833B9044B13B10448AFF34E
:1004100000800123237010BDD400002000000000E4
:10042000544A0000084B10B51BB108480849AFF307
:1004300000800848036803B910BD074B002BFBD0B0
:10044000BDE81040184700BF00000000544A0000FB
:10045000D8000020D000002000000000154B002B29
:1004600008BF134B9D46A3F5803A00218B460F46EB
:100470001348144A121A00F065F80F4B002B00D0F5
:1004800098470E4B002B00D0984700200021040015
:100490000D000D48002802D00C48AFF3008000F09A
:1004A0002BF82000290003F0CFF800F011F800BF6E
:1004B0000000080000000120000000000000000013
:1004C000D400002000060020000000000000000012
:1004D00008B5074B044613B10021AFF30080054B6C
:1004E0001868836A03B19847204600F033F800BFCC
:1004F00000000000EC47000070B50E4B0E4CE41AF3
:10050000A41000251E46A54204D056F82530984771
:100510000135F8E704F05CF9084C094BE41AA41023
:1005200000251E46A54204D056F8253098470135CF
:10053000F8E770BDC8000020C8000020CC000020F3
:10054000C800002002440346934202D003F8011B76
:10055000FAE77047FEE700BF2DE9F84F234B1A7802
:100560008AB3DFF88CB0DFF88C80DFF88C90002441
:100570004FF0010A03E00134E4B2944223D226B2E0
:10058000D8F80050DBF8003015F836000AFA00F110
:10059000194205EBC607EED0154A23EA01031360A2
:1005A00001F008F915F83650D9F800300AFA05F1CB
:1005B0000B4000FA05F18B4207D00C4B01341A783E
:1005C000E4B29442DBD3BDE8F88F79787B68A1F17F
:1005D0000101B1FA81F14909002BEED0091A284630
:1005E000B1FA81F149099847E7E700BFF800002018
:1005F00020010020F40000201C01002070B50646F8
:10060000114800F03FFD40B9104D01242B68B44063
:100610001C4203D023EA04042C6070BD304601F074
:10062000C9F80B4E326860B122432B680949326029
:100630001C432C60044809680022BDE8704000F0AB
:10064000B7BC22EA0402F0E7FC00002020010020F1
:100650001C010020F0000020F0B5042A85B01746E8
:1006600002D8072005B0F0BD0191054600F06CFFEF
:100670000199002830D01C4CDFF888E01B481C4A48
:100680001C4B256000264C1E07608EF8001016607B
:100690001E60E4B2032709B918E01C4623B205EB3B
:1006A000C30215F833009378134A8DF80D3003A96F
:1006B0008DF80C708DF80E608DF80F6000F04EFF15
:1006C000631E0028CED1DBB2002CE6D10B4A0C48C9
:1006D000002100F05BFCC5E7019100F0FDFE0199EF
:1006E0000028C8D0BEE700BFF4000020F0000020C2
:1006F0001C01002020010020FD050000590500001C
:10070000F0470000F800002070B5084D2B785BB171
:10071000074E00243368012113F8340000F0E8FF8D
:100720002B780134A342F5D8002070BDF8000020DA
:10073000F400002000B585B000230390194644F270
:10074000010001AAADF80430029300F003F805B0EF
:100750005DF804FBBFF34F8F0549064BCA6802F4EE
:10076000E0621343CB60BFF34F8F00BFFDE700BFD4
:1007700000ED00E00400FA0559B10AB909207047FC
:10078000531E1A40FAD1826001608380C260104615
:1007900070470E20704700BF10B48468C2680346DB
:1007A0008088121B904203D204205DF8044B7047EE
:1007B000DA681C6802400020A154DA680132DA606D
:1007C0005DF8044B704700BF03468068DA689042CA
:1007D0000DD010B49A6898881C6802400020A25C72
:1007E0000A709A6801329A605DF8044B70470520E0
:1007F000704700BF484B494830B401214FF4803462
:100800004FF400352F22C0F88050C3F848431046FB
:10081000C3F808435960013800BF00BF00BF00BFE4
:1008200000BF00BF00BF00BF00BF00BF00BF00BFD0
:1008300000BF00BF00BF00BF00BF00BF00BF00BFC0
:1008400000BF00BF00BF00BF00BF00BF00BF00BFB0
:1008500000BF00BF00BF00BF00BF00BF00BF00BFA0
:1008600000BF00BF00BF00BF00BF00BF00BF00BF90
:1008700000BF00BF00BF00BF00BF00BF00BF00BF80
:1008800000BF00BF00BF00BF00BF00BFC3D1244CEA
:100890009960002310462360013800BF00BF00BFED
:1008A00000BF00BF00BF00BF00BF00BF00BF00BF50
:1008B00000BF00BF00BF00BF00BF00BF00BF00BF40
:1008C00000BF00BF00BF00BF00BF00BF00BF00BF30
:1008D00000BF00BF00BF00BF00BF00BF00BF00BF20
:1008E00000BF00BF00BF00BF00BF00BF00BF00BF10
:1008F00000BF00BF00BF00BF00BF00BF00BF00BF00
:1009000000BF00BF00BF00BF00BF00BF00BFC3D11A
:10091000044A137030BC70470010014000E100E051
:1009200024010020440100202DE9F041274A284BF2
:100930000025C2F84051C2F84451C2F84851C2F8EB
:100940004C51C2F80051C2F804511B681BB3214935
:10095000D2F804250C68204F141B1A6824F07F4439
:10096000A242A84609D8197CDE69A41A1544A1B987
:100970001EB133461A68A242F5D9184B18491A78A5
:100980000B789A421BD01749174A41F823504FF46D
:100990008013C2F80031BDE8F081D3F814C083F8A9
:1009A00010803A689B69604619462AB19047002832
:1009B000DED0FFF7BFFEDBE71846E047D8E7531C61
:1009C000DBB2022B08BF00230B70DCE700100140F4
:1009D00028010020240100202C01002038010020E3
:1009E000390100203C01002000E100E02DE9F04F3A
:1009F000A34AA44913780978A34887B000680190F6
:100A0000994200F061810133DBB2022B08BF002361
:100A100013709E4A52F823C0019B9B4A634423F003
:100A20007F43136001230393994B9A4A93F800B0D4
:100A3000994B1268D3F800A0984B05921B7802934B
:100A4000914B1B680493D8460025114608F1FF38E6
:100A50005FFA88F8B8F1FF0F4DD00FFA88F30AEB70
:100A6000C3041AF833006778BE467045EED000EB39
:100A70004006636894F8029013F836700130C0B2F3
:100A8000814508BF0020022F03EBC6030DD0032FC2
:100A9000EBD10AB9E9E71A46D3691574002BFAD1EC
:100AA00019461A4694F801E0DFE75F68002ADCD0B7
:100AB000974217D0164600E01E46F369002BD4D0AB
:100AC0009F42F9D1B742334600F0EC80FE693F689F
:100AD000DE61002EE6D033683B44336094F801E0D9
:100AE0000A46C2E7D36917461946002B00F0E0809A
:100AF0001A463B46EAE713460A46664904980A60E6
:100B00006149086065499DF80800087003990293DF
:100B10001846002940F0DD80059B1B1A18BF0123F1
:100B200003930D465C4B029E1B680593564BDFF802
:100B30007081D3F800E0574BD3F80090574B1B78E7
:100B4000049300274FF0010C30460BF1FF3B5FFA96
:100B50008BFBBBF1FF0F00F08380059B03EBCB0405
:100B6000019455B36A68A9682B46ED69CEEB02067D
:100B700026F07F4646453ED8314419605F609F604D
:100B800083F810C0DF61002866D006688E4244D228
:100B90008246019C03E016688E4245D29246DAF8FE
:100BA0001C20891B002AF6D10194DA6102461960E3
:100BB0001046CAF81C30002DD4D1019A137852780F
:100BC0009A42C2D0019E5A1C96F802A07168D2B215
:100BD00092453446327008BF224603EB430308BFF8
:100BE000157011F8332001EBC306012A73681FD07A
:100BF00002461046DFE7C2EB0E0222F07F428A4235
:100C000002D2891A1960B9E71F605F609F6083F89C
:100C100010C0DF6100B306680021711A1A46016036
:100C20009946D8611046C6E7761A01941660BCE76B
:100C300093F810A0BAF1000FDAD1B2685A60F168E7
:100C400099603469DC60049C76699E61002C8DD0CB
:100C5000C3F804A0524689E71A4699461046AAE707
:100C60000C4BC3F80090029B8342064652D1039B73
:100C7000002B4FD1094A0023137007B0BDE8F08F55
:100C80003801002039010020240100203C0100200F
:100C90003001002028010020340100203A0100200A
:100CA000FEFF7F00D36937461946002B7FF420AF43
:100CB00003F1804303F58833012201269A600A4636
:100CC00004913B46029601E74FF0000CCDF80CC0B2
:100CD000AAE6002528462C46B3B11968614500F202
:100CE000D880DE681C60C1EB0C0C0844D9693EB1A9
:100CF000019ADD61821822F07F429E605A601D4693
:100D00000B460A46002BE8D16449029301230A608E
:100D1000039307E7002E00F0B9806149614BD1F8D9
:100D200004451B68604DD6F800802878E21A22F04E
:100D30007F42033200285BD042452CBF9A1803EB58
:100D40000802574922F07F43C1F84035D1F8042505
:100D5000121B1B1B22F07F4223F07F4303329A4277
:100D600088D9D1F80435C1F840352F20013800BFAB
:100D700000BF00BF00BF00BF00BF00BF00BF00BF7B
:100D800000BF00BF00BF00BF00BF00BF00BF00BF6B
:100D900000BF00BF00BF00BF00BF00BF00BF00BF5B
:100DA00000BF00BF00BF00BF00BF00BF00BF00BF4B
:100DB00000BF00BF00BF00BF00BF00BF00BF00BF3B
:100DC00000BF00BF00BF00BF00BF00BF00BF00BF2B
:100DD00000BF00BF00BF00BF00BF00BF00BF00BF1B
:100DE00000BFC3D1314B4FF40032C3F8002141E7BB
:100DF0002E4F4FF4803C4FF4003E0126C1F844C30F
:100E00002F20C1F804C3C7F880E1C7F800E00E60E6
:100E1000013800BF00BF00BF00BF00BF00BF00BF60
:100E200000BF00BF00BF00BF00BF00BF00BF00BFCA
:100E300000BF00BF00BF00BF00BF00BF00BF00BFBA
:100E400000BF00BF00BF00BF00BF00BF00BF00BFAA
:100E500000BF00BF00BF00BF00BF00BF00BF00BF9A
:100E600000BF00BF00BF00BF00BF00BF00BF00BF8A
:100E700000BF00BF00BF00BF00BF00BF00BF00BF7A
:100E800000BF00BF00BFC3D12E7055E7FFF7B2FC13
:100E9000F0E6CCEB0101196036E700BF2801002025
:100EA00000100140240100204401002000E100E086
:100EB0002DE9F04F12F0030485B003D0072005B0F0
:100EC000BDE8F08F002A49D08DE80F00FFF792FCB3
:100ED0000199029ADFF8A0B0917001EB410502F18F
:100EE0001807ED007E1991729174039B1E49DFF87B
:100EF0008CA0DFF88090DFF88880DFF888C0DFF80A
:100F000088E0D66035445561CBF800304FF4801648
:100F1000C0230325147054705760147254721474F3
:100F20005474C9F800208AF80050C8F800408CF8C2
:100F300000408EF800400D4FC1F8806181F81433F5
:100F40000E600098C7F8080581F81133084AD7F8F1
:100F500004351360204605B0BDE8F08F054B07202F
:100F60001A6005B0BDE8F08F00E100E0001001401C
:100F700024010020340100202C0100203001002039
:100F8000280100203801002039010020074B1B6890
:100F900023B12AB120B10368187C18B1082070472A
:100FA0000720704759745A61704700BF3401002010
:100FB000304B1B6823B118B1042903D807207047B0
:100FC00008207047F0B54469002C4DD0447C012CBA
:100FD0000CBF0E460026EFF30584C4F3080494B159
:100FE000103C65B2002D38DB05F1604404F5614426
:100FF00094F800436409E4B2022C39D0062C0CBFEB
:101000000824102400E0102423445C7893F802E0C4
:101010001F78651CEDB2AE4508BF0025AF4225D054
:1010200004EB4404D3F804E0E4001EEB04071DD0F5
:101030004FF0010C0EF804C0DFF844E078600E4C6D
:10104000DEF80405B8604FF4801EF9603E617A61F5
:101050005D70C4F800E10020F0BD084D04F00F04FD
:1010600025442C7E6409C6E70820F0BD0420F0BDAD
:101070000024C9E73401002000E100E0FCEC00E0BE
:1010800000100140264B1A68F2B10346E0B14169F5
:10109000D1B10021F0B50174EFF30581C1F308016E
:1010A000A1B1103948B2002833DB00F1604101F5ED
:1010B000614191F800134909C9B2022927D00629D4
:1010C0000CBF0821102102E00820704710210A44BB
:1010D0005178957810784C1CE4B2A54208BF0024E2
:1010E000A04212D001EB41015068C90010EB010E83
:1010F0000BD00C4D022747544FF48016CEF8043025
:101100005470C5F800610020F0BD0420F0BD00213E
:10111000DDE7054801F00F010844017E4909CBE7EE
:101120003401002000E100E0FCEC00E072B6024A6D
:10113000136801331360704748010020034A1368A5
:10114000013B136003B962B6704700BF480100203D
:1011500070B5161E07DD0C468D1914F8010B00F052
:10116000F1F8AC42F9D1304670BD00BF10B50C4665
:10117000204600F0CBF80528FAD0012010BD00BFB2
:1011800030B50478012C83B016D0022C30D00CB1CD
:1011900003B030BD25482649FFF716FB18B3234B93
:1011A0009A68DB689A42F3D102A8032300F8083D4D
:1011B000204B1B689847EBE743681F4D197828467A
:1011C000FFF7EAFA08BBAA68EB689B1A012B24D048
:1011D000A968EB68AA885B1A9A42D9D301211748FB
:1011E00001F0D0F8D4E70121114801F02FF8D6E73B
:1011F000C3681248019301218DF8004001F0C2F844
:101200000C4B68461B689847C2E70A4B01908DF863
:1012100000401B6868469847DAE702AB054A03F8C6
:10122000080D126818469047D2E700BF5801002009
:101230004C010020500100206801002054010020D2
:101240002DE9F0472B4C88B022600C4600294AD08B
:10125000054609682848A2881F46FFF78DFA10B195
:1012600008B0BDE8F0872548A168A289FFF784FA95
:101270000028F5D1224E95F804A095F80590D5F8F0
:10128000088095F803C095F802E00FCE6C460FC4B5
:1012900096E80F001AF1000618BF0126B9F1000FF9
:1012A00084E80F0014BF0E2400242A786B781549B7
:1012B0008DF81C7068468DF814608DF81540CDF8D7
:1012C0001880CDF808C0CDF80CE00192009300F032
:1012D000F5FE0028C4D19DF81D3043B101210A4814
:1012E00001F050F8BCE7072008B0BDE8F08701F036
:1012F00037F9F3E750010020680100205801002071
:10130000F4470000811100005401002010B50B4A81
:101310009168D36892885B1A9A42044605D02146A8
:101320000648BDE81040FFF74FBA0548012101F01B
:1013300029F80028F3D0052010BD00BF6801002067
:101340005401002010B501460B48FFF725FA04466A
:1013500008B1204610BD01F00DF80028F9D106486B
:101360000649FFF731FA0028F3D104480121BDE80E
:10137000104000F06BBF00BF580100204C0100205E
:1013800070B50A4D2C7A0CB1852070BD4FF08043AA
:1013900001262C602046C3F8186506216C602C617C
:1013A000EC6000F071F82E72204670BD78010020CC
:1013B00070B5144C82B005460020FFF7B7FEA37A43
:1013C0005BB115B16B6801209847E36801330020D9
:1013D000E360FFF7B3FE02B070BD15B123692B6067
:1013E0002561E368002BF1D1074A084913601268B0
:1013F00001924FF0804002250122019EC0F8045363
:101400000A60E3E778010020040100400800004082
:1014100010B51A4B1A6882B0A2B100221A601B687C
:1014200000934FF080430122154C0099C3F8082324
:101430006368627233B10CCB0020626098476368C6
:10144000002BF8D10F4B1A68AAB100221A601B6852
:1014500001934FF080430222094C0199C3F80823FD
:1014600023690122A27233B10CCB0120226198477B
:101470002369002BF8D102B010BD00BF000100406D
:101480007801002004010040002810B418DB00F1AE
:10149000604303F561434901C9B283F80013C3B245
:1014A0004009800000F1604000F5614003F01F0238
:1014B00001239340C0F8803103605DF8044B70470E
:1014C000C3B2044A03F00F0449012244C9B21176A1
:1014D000E6E700BFFCEC00E038B5194C94F8545036
:1014E0000DB1082038BD4FF0FF3306200146FF2222
:1014F00023636363A363E36323646364A364E364B8
:1015000023606360A360E36023616361A361E361BF
:10151000236284F850306362A36284F85230E3623D
:1015200084F8533084F85120FFF7AEFF054A4FF09E
:1015300000410123C2F8041384F85430284638BD12
:101540008C01002000600040034B93F854000030F1
:1015500018BF0120704700BF8C010020F0B5634C1C
:10156000251895F93030002B01DB0820F0BD91F8EB
:1015700003E09446BEF1000F56D02368013300F01B
:10158000AD80082600256B1C584F54F823200132EB
:1015900051D0AB1C9E4245D957F8232001324AD086
:1015A000EB1C9E423ED957F82320013243D02B1D1D
:1015B0009E4237D957F8232001323CD06B1D9E4202
:1015C00030D957F82370013735D0AB1D9E4229D949
:1015D00054F82320454F01322DD0EB1D9E4221D9D6
:1015E00057F82320013226D005F108039E4219D96D
:1015F00057F8232001321ED005F109039E4211D96C
:1016000057F82320013216D005F10A039E4209D96A
:1016100057F8237001370ED00B35AE4202D9E36A7A
:10162000013307D00420F0BD236A01334ED00C26CD
:101630000825A8E70B232618DDB244F823C086F856
:101640003050BEF1000F02D1234483F848008B785C
:10165000ABB94A784FF0A04600F5E073920046F827
:101660002320CB78ABB96AB2083A1444097894F8CD
:10167000502042EA811284F850201846F0BD8300C1
:1016800003F1A043D3F8002722F00202C3F8002799
:10169000E7E76BB29B0003F1804303F5C0430A7890
:1016A000D3F8101521F4473121F44071C3F8101517
:1016B0001204000202F44031D3F8104500F4F8524D
:1016C0000A432243C3F810250020F0BD082685F800
:1016D00030603346C4F820C03546B5E7002385F8AE
:1016E0003030C4F800C01D46B1E700BF8C010020B7
:1016F000F0B42E4D2E1882B096F8302053B2072B3E
:101700001CDD2B4493F848309B09032B40D0012B60
:101710000CBF4FF400314FF44031800000F1A04085
:10172000D0F8002722F44032C0F80027D0F8003764
:101730000B43C0F8003702B0F0BC7047072AFAD854
:10174000980000F1804000F5C04003F14002920093
:10175000D0F8104592B202F18042002744F0010413
:1017600002F5C042C0F810450197019817600029A2
:10177000E1D096F9302055F82220002ADBD0012252
:101780000B4902FA03F3C1F8043302B0F0BC70470E
:101790004FF0A0420123D2F810258340134214BF1A
:1017A0004FF440314FF40031B7E700BF8C01002007
:1017B000006000404FF0A043D3F8103523FA00F04A
:1017C00000F00100704700BF2DE9F04FA94B1A68E7
:1017D000012A83B000F0B2800024A74B1A68012AC6
:1017E00000F0BE80A54B1A68012A00F0CB80A44B04
:1017F0001A68012A00F0D880A24B1A68012A00F06A
:10180000E580A14B1A68012A00F0F2809F4B1A680C
:10181000012A00F0FF809E4B1A68012A00F00C811B
:101820009C4B1A68012A00F019814FF0000814F04F
:10183000FF0F17D0E20700F13581A30700F14181C6
:10184000670700F14D81260700F15981E50600F197
:101850006581A00600F17181610600F17D8122069B
:1018600000F18981002C02DB03B0BDE8F08F8A4DC6
:101870004FF0FF36A5F153074FF0000A874C4FF0A9
:10188000000914F8011FFF2920D0C9B221F0C000BF
:1018900026FA00F3DB0719D53B18890993F9303094
:1018A00057F823204AB34FF0010E03290EFA00FE29
:1018B00029D0830003F1A0431EEA080FD3F800C724
:1018C000CCF3014C10D1BCF1030F1FD0AC42D8D1E6
:1018D000B9F1000FC8D04FF0A043D3F810359845A8
:1018E000C2D098465646C9E7BCF1020FEED1032993
:1018F00011D0002AEAD09047E8E70329E6D14FF05B
:10190000010E0EFA00FE4AEA0E0AD2E70329F0D1D0
:101910004FF4003B01E04FF4403BD3F800C72CF4F8
:10192000403CC3F800C7D3F800E709F101094BEACE
:101930000E0E5FFA89F9C3F800E7DAE75849D1F8E3
:10194000041311F001043FF448AF002119601B6833
:101950000093009B484B14461A68012A7FF442AF5B
:101960004F4AD2F8042391077FF53CAF00221A605A
:101970001B680093009B414B1A68012A44F0020443
:101980007FF435AF464AD2F8042352077FF52FAFD4
:1019900000221A601B680093009B394B1A68012AC9
:1019A00044F004047FF428AF3D4AD2F8042317071B
:1019B0007FF522AF00221A601B680093009B314B19
:1019C0001A68012A44F008047FF41BAF344AD2F8A5
:1019D0000423D6067FF515AF00221A601B6800931A
:1019E000009B294B1A68012A44F010047FF40EAFC3
:1019F0002B4AD2F8042395067FF508AF00221A601F
:101A00001B680093009B214B1A68012A44F02004B4
:101A10007FF401AF224AD2F8042350067FF5FBAED3
:101A200000221A601B680093009B194B1A68012A58
:101A300044F040047FF4F4AE194AD2F804231106AE
:101A40007FF5EEAE00221A601B680093009B114BDD
:101A50001A68012A44F080047FF4E7AE00221A607D
:101A60001B6801934FF0A043019AD3F8108544F00E
:101A70000044DCE600610040046100400861004071
:101A80000C6100401061004014610040186100408A
:101A90001C6100407C610040DF010020DB01002070
:101AA000006000403A4B3B4AD3F81005D3F81015BC
:101AB0001368C0F30420C1F301419847A3077FF5E1
:101AC000BFAE334B334AD3F81405D3F8141553681B
:101AD000C0F30420C1F30141984767077FF5B3AE17
:101AE0002B4B2C4AD3F81805D3F818159368C0F37C
:101AF0000420C1F30141984726077FF5A7AE244B88
:101B0000244AD3F81C05D3F81C15D368C0F304206D
:101B1000C1F301419847E5067FF59BAE1C4B1D4A7A
:101B2000D3F82005D3F820151369C0F30420C1F3BE
:101B300001419847A0067FF58FAE154B154AD3F8A3
:101B40002405D3F824155369C1F30141C0F30420DF
:101B5000984761067FF583AE0D4B0E4AD3F82805F2
:101B6000D3F828159369C0F30420C1F301419847C5
:101B700022067FF577AE064B064AD3F82C05D3F83C
:101B80002C15D369C0F30420C1F30141984769E6DD
:101B9000006000408C010020F0B590F804E06E4D2C
:101BA0004FEACE042B1985B01B7913B1082005B07C
:101BB000F0BD002900F0C98045F83E200A78FF2AD0
:101BC00000F0B78022F080031706009300F19880A0
:101BD00001224FF0A0469A40C6F80C2503F5E073A9
:101BE0004FF0A042032642F823604A78FF2A00F013
:101BF000A48022F080031606019340F18F80012219
:101C00004FF0A0469A40C6F8082503F5E0734FF060
:101C1000A042032642F823608A78FF2A00F08580DC
:101C200022F080031206029371D501224FF0A046E4
:101C30009A40C6F8082503F5E0734FF0A04203264A
:101C400042F82360CA78FF2A7BD022F0800312F08A
:101C5000800F4FF0A0464FF0010202FA03F2039307
:101C600014BFC6F80825C6F80C2503F5E0734FF03D
:101C7000A042032642F823600368009F019E029A57
:101C8000C3F86075C3F86465C3F86825039AC3F8A0
:101C90006C2503680122C3F8002503688E790A8940
:101CA0004F79C3F80C75C3F80465C3F80825CE7ADC
:101CB0008B7A026843EA0623C2F8103502680023D3
:101CC000C2F800320268C2F800330268C2F81C3160
:101CD0000268C2F810310268C2F814310268C2F812
:101CE000043155F83E302BB10068097940F30730D4
:101CF000FFF7CAFB2C4401230020237105B0F0BD7F
:101D000001224FF0A0469A40C6F8082566E7012256
:101D10004FF0A0469A40C6F80C258CE701224FF000
:101D2000A0469A40C6F80C256FE74FF0FF330293A8
:101D300088E74FF0FF33009357E74FF0FF330193ED
:101D40006AE74FF0FF33039396E7044B0EEB4E0127
:101D500003EB810130E700BFE401002014480000DC
:101D600003680B491B0B5AB2520970B42032094E5A
:101D7000057903F01F0301249C4046F8224001EB43
:101D8000C50301680022C1F800251A7170BC7047B4
:101D9000E401002000E100E070B404680E680579F9
:101DA000C4F820658E88C4F824658E68C4F8286558
:101DB000CE68C4F82C6504680E68C4F840658E8847
:101DC000C4F844658E68C4F84865C968C4F84C1501
:101DD000046802F0010101EB5202C4F81425DA078D
:101DE00034D413F0020233D106680029DBB214BFE9
:101DF0000C240824C6F800221D4A02EBC50152F843
:101E0000352002250D71C2B103F00402002A0BBF78
:101E10002A461222822192210BBF22263226A22597
:101E2000B22513F0080F1CBF3246294613F0100FDD
:101E3000036808BF0A46C3F8002303680022C3F8FA
:101E40000421036801221A5170BC70471022CBE7AD
:101E500031B102680821DBB2C2F800120C24CBE7D2
:101E600002680421DBB2C2F800120824C4E700BFF4
:101E7000E401002070B404680E680579C4F8206598
:101E80008E88C4F824658E68C4F82865C968C4F8CB
:101E90002C1504681168C4F840159188C4F84415DD
:101EA0009168C4F84815D268C4F84C250168039AB3
:101EB000C1F81435D30731D412F0020F14BF042631
:101EC0000026174B016853F83540C1F8006203EB58
:101ED000C5010225D3B20D71BCB103F00402002A82
:101EE0000BBF2A461222822192210BBF22253225C6
:101EF000A224B2241E0744BF2A46214613F0100F25
:101F0000036808BF0A46C3F8002303680022C3F829
:101F10000421036801229A6070BC70471026D0E744
:101F2000E401002010B51F4BD3F80423D00602D5DE
:101F3000D3F8102132BB1B4BD3F80423910602D5F2
:101F4000D3F8142132BB174BD3F80423120602D561
:101F5000D3F81C217AB9134BD3F8042102B910BD70
:101F60000021114AC3F804110121117113680320E3
:101F7000BDE81040184700200B4AC3F81C01136845
:101F80009847E8E70021084AC3F8101113680120B8
:101F90009847D0E70021044AC3F8141113680220BF
:101FA0009847D0E700C00140E401002010B51F4B66
:101FB000D3F80423D00602D5D3F8102132BB1B4B33
:101FC000D3F80423910602D5D3F8142132BB174B62
:101FD000D3F80423120602D5D3F81C217AB9134B87
:101FE000D3F8042102B910BD114A00200121C3F821
:101FF0000401117393680320BDE8104018470C4A90
:1020000000209268C3F81C019047E8E7084A0021C5
:102010009268C3F8101101209047D0E7044A0021CC
:102020009268C3F8141102209047D0E700100240D4
:10203000E401002010B51F4BD3F80423D00602D5CD
:10204000D3F8102132BB1B4BD3F80423910602D5E1
:10205000D3F8142132BB174BD3F80423120602D550
:10206000D3F81C217AB9134BD3F8042102B910BD5F
:10207000114A00200121C3F80401117513690320DE
:10208000BDE8104018470C4A00201269C3F81C0133
:102090009047E8E7084A00211269C3F810110120AF
:1020A0009047D0E7044A00211269C3F814110220B6
:1020B0009047D0E700200240E4010020F8B5594CD9
:1020C000E37E0BB10820F8BD574A002808BF104630
:1020D00001250768467F26774FF0A042BD40C2F831
:1020E0000855056805F5E0754FF0030E42F825E048
:1020F000456805F5E07542F82530002E33D14B4B8D
:102100008569C3F82455077D457D3D43C3F86C556B
:1021100090E8A000C3F80C55C3F81475077D012F93
:1021200064D003696160236071B1017F002E48D1E2
:102130003F4E404D3D4A4048002333602B60C2F87B
:1021400004030220FFF7A0F9237F002B49D0374B6F
:102150000822C3F8002500200123E0752076A07531
:10216000A076E376F8BD314D8769C5F8247590F8FF
:1021700014C0477D4CEA0707C5F86C7590E88010DD
:10218000C5F80C75C5F814C5077D012FC9D186683F
:1021900006F5E07642F82630C3689F40C2F808751D
:1021A000C36803F5E07342F823E08368C268C5F8AA
:1021B0000825C5F810350369616023600029C3D084
:1021C000017FDFF884E01D4F1D4E1A4D174A1D4850
:1021D0000023CEF800303B6033602B60C2F804036C
:1021E000AFE7124B0422C3F80025B4E7856805F574
:1021F000E07542F82560C568AF40C2F80875C5684B
:1022000005F5E07542F825E0C5688268C3F8085511
:10221000C3F81025036961602360002994D0017F11
:1022200086E700BFFC010020384800000020004085
:102230001C21004044210040800002002021004079
:102240002421004010030200102100402DE9F0017C
:10225000414A137F43B1030C1B04B3F1005F0AD062
:102260001020BDE8F0017047937D002B2AD011208B
:10227000BDE8F0017047957D002DF8D1374E384C00
:10228000384B394F91754FF0010C95829060256065
:102290001D60C6F84405C6F84815C7F800C0516867
:1022A00029BB184600E023BB21680368003318BF30
:1022B00001230029F7D0002B0CBF00200F200023A2
:1022C0009375CEE7294C284D9382012623602E601A
:1022D0002360958A938A9175A9B2204E5768415C14
:1022E000906001339BB29382C6F81C151FB1002089
:1022F000B7E70F20E3E721461546907D938A164CF9
:102300009BB2984205D818E0938A9BB2B3F5807FC0
:1023100002D00B68002BF7D0938A9BB2B3F5807F75
:10232000ECD00F60AC8AAB8AA868A4B20133005D20
:102330009BB2AB82C6F81C05DFE7A38A9BB2B3F55C
:10234000807FD6D009490B68002BFCD0084B0121B7
:1023500019600020B3E700BFFC010020002000400E
:102360002021004058210040082000401C2100404E
:102370000C200040024B987D003018BF01207047B0
:10238000FC010020F0B56F4B1A7F32B1040C24041D
:10239000B4F1005F4ED01020F0BD5C6824B16A4DEE
:1023A0004FF40176C5F80863DD7D664EB5B9B27E9F
:1023B000F175F060757635763AB96448644D6249D6
:1023C0007468026001202A600860002C55D05E4BC2
:1023D0004FF40172C3F804230020F0BD1D7E594E56
:1023E0005DB1002C00F08C80574B002A3FD04FF499
:1023F0000472C3F804231120F0BD30613176002A45
:10240000E3D0514A534E544C35602560C2F8340530
:10241000C2F83815D2F8001241F02001C2F80012BB
:102420005A68002A6ED0484B4FF40472C3F8042354
:102430000020F0BD5C6824B1434D4FF40476C5F82C
:102440000863DD7D3F4E002DC8D13F4ADFF804E12F
:10245000414F75760124F175F0603576CEF8005065
:102460003D60C2F83405C2F838151460D8E74FF45F
:102470000172C3F804231120F0BD374A334E344DA6
:10248000304FDFF8C4E014601446316828682268D1
:10249000003118BF0121003218BF012230B9E2B962
:1024A0000029F2D00022DA750320F0BD0029F9D10D
:1024B000AAB9D97DB9B92960DEF818255A7ED97D27
:1024C00020489142E1D8837E0022C275002B33D090
:1024D0001D4B012119601046F0BD0029E2D10022F8
:1024E000DA750F20F0BD2A60787EDEF818157A7E46
:1024F00002F1010CFA6811545FFA8CF27A76DDE78A
:102500001120F0BD134E144D104C02E061B9002AA9
:10251000C8D1306829682268003118BF0121003213
:1025200018BF01220028F1D00020D875002ABBD1A5
:10253000814218BF0F20F0BD084A012111601846E2
:10254000F0BD00BFFC01002000200040242100401D
:102550000821004010210040442100400420004098
:10256000084B1A7F62B99A7E52B90749074810B4DE
:10257000074C0A6001212260997601605DF8044BE6
:10258000704700BFFC0100202421004000200040D3
:1025900008210040F0B59C4C237F85B0002B74D1FE
:1025A0009A4AD2F80413890548D4984BD3F80423E7
:1025B000520710D5964A116869B1E17D9248002909
:1025C00040F008811160D3F81835627EE17D8E4BB2
:1025D000914200F0E3808F4B1A68A2B1A28AA17DDC
:1025E000894892B291424FF000021A6040F2928004
:1025F000828A838A8568854992B20133AA5C9BB23C
:102600008382C1F81C25844B1A68AAB1A27E0021DE
:102610001960002A79D1E27D7B4B6AB15A7ED96874
:102620008DF808200020012201918DF80020D87536
:1026300093E806006846904705B0F0BD7749086802
:102640000028B2D0A07E0B604FF40173C2F80833AB
:1026500028B903F1804303F5F05301221A606B4A55
:1026600002238DF80030D2F88034C2F88034E07D47
:10267000E26803938DF808000023019221686268E4
:10268000E375684623769047A5E7644A1368002BF4
:102690004FD1634A116839B15C481360D0F83C25CA
:1026A000E17DD2B2914260D05B4B1A68A2B1E17D6C
:1026B000554800221A6079B1A3F5A273C168D3F816
:1026C0003C358DF80830012301918DF80030C2753A
:1026D00090E80A0068469847524B1A68002AABD027
:1026E000A17D494800221A600029A5D04749836886
:1026F000D1F84C158DF808100193827590E80A0006
:102700008DF800206846984796E7A3F5A27301224A
:102710001A6080E700293FF476AF83688DF80810CF
:102720000193827590E80A008DF80020684698476A
:1027300069E700233549136002208DF80000D1F8C5
:102740008024C1F880240392D1F83C15E2688DF80A
:102750000810019221686268E37568462376904705
:102760002D4B1A68002AB7D0A1E7277E002F3DD055
:10277000D0F80022E77522F02007E6682569C0F846
:10278000007201208DF808108DF800002376216872
:1027900001966846E5606368984785E71A7E002AD7
:1027A00044D19B7E13B9204B01221A60174AE0687E
:1027B00063684FF40171C2F80813627E8DF8082037
:1027C000012201908DF80020216800226846E27500
:1027D000984700E700211160427ED3F81855437EE8
:1027E000C1680133DBB28D544376EEE6E2688DF8C2
:1027F000081001238DF80030019294E80A00E77573
:102800006846984750E700BFFC01002000200040C8
:10281000082100401C2100404421004024210040A8
:10282000102100402021004004200040D968587E3B
:10283000019101218DF808008DF800101E69DA75EC
:1028400093E8220000226846DE601A765A76A8478E
:10285000C1E600BF4FF0A042D2F80435D94301F4DD
:10286000002103F40023C2F80815C2F80C357047A4
:102870000D282DE9F047044607D00E2837D00F2841
:1028800037D0102837D0BDE8F0870025012911D0B6
:1028900020D30229F7D1214B05EB45051D446E7865
:1028A000002EF0D01E4B1B68002BECD03046BDE84C
:1028B000F0471847DFF864806F007B1908EB0302CC
:1028C00018F803605378C3B92F444744154BBA78BE
:1028D0005A55E5E71448FEF7D5FB1049114A05EBB8
:1028E00045030B44565D9B789E42CCD1D8E7012529
:1028F000CCE70225CAE70325C8E70C4BDFF8309088
:102900001968094801EB810149004A46FEF750FB6E
:102910000028D9D189F80040D6E700BF98020020EE
:102920006C02002094020020700200206802002047
:1029300064020020C94B1B68DB0700D4704770B5E8
:10294000C74B1C78172C22D8DFE814F068007500FC
:102950007500AE00D500F5001A013D0139002200D6
:10296000390022001800500150015001500150015F
:102970004E0058009E007801180018004FF0A04348
:102980004FF4F0110022C3F80C15C3F8082570BDF0
:102990004FF0A042B34CD2F80435B348D94301F408
:1029A000802103F48023C2F80815C2F80C35216891
:1029B000002201EB8101BDE87040FEF7F9BA4FF04B
:1029C000A042A84CD2F80435A748D94301F480218D
:1029D00003F48023C2F80815C2F80C3521680022E0
:1029E000BDE87040FEF7E4BA4FF0A0434FF4F01199
:1029F0000022C3F80815C3F80C2570BD4FF0A043A2
:102A000000224FF4E0104FF40031C3F80805C3F87A
:102A10000C25C3F80C15C3F8082570BD934B1B6833
:102A20004FF0A042DB4303F4F0130021C2F8083555
:102A3000C2F80C1570BD8D4A12684FF0A040D24309
:102A400002F4E0120025C0F80825C0F80C55D0F8B3
:102A5000042582F4F01212F4003200F03881022CC6
:102A60004FF40032C0F808250CBF12212821C0F80D
:102A70000C557C4A1C7012687B4802FB01F1BDE8D2
:102A800070400022FEF794BA4FF0A04300224FF4AA
:102A9000D0104FF48021C3F80805C3F80C25C3F803
:102AA0000C15C3F8082570BD704A12684FF0A0409D
:102AB000D24302F4E0120024C0F80825C0F80C4507
:102AC000D0F8042582F4F01212F4003200F0F780FE
:102AD0004FF40032C0F808250821C0F80C45614ABF
:102AE0006148126803241C7002FB01F1BDE87040CC
:102AF0000022FEF75DBA5D4A12684FF0A040D24353
:102B000002F4E0120024C0F80825C0F80C45D0F803
:102B1000042582F4F01212F4003200F0C1804FF468
:102B20000032C0F808252821C0F80C454D4A4E480F
:102B300012680424D7E74D4A12684FF0A041D243EF
:102B400002F4E0120020C1F80825C1F80C05D1F804
:102B5000042582F4F01212F4003200F0A9804FF440
:102B60000032C1F80825C1F80C053E4A3E481168FC
:102B700005241C7049000022BDE87040FEF718BA19
:102B80003A4A12684FF0A041D24302F4E01200200A
:102B9000C1F80825C1F80C05D1F8042582F4F0121B
:102BA00012F4003275D04FF40032C1F80825C1F894
:102BB0000C052C4A2C48116806241C700022BDE824
:102BC0007040FEF7F5B9294B1B684FF0A042DB437C
:102BD000002103F4E0134FF40030C2F80835C2F8C6
:102BE0000C15C2F80C05C2F8081570BD2048FEF798
:102BF00049FAD4F1110402463ED000283CD11B4EC4
:102C00004FF40023012C336010D0C825194B15490F
:102C10001748096805FB04F4A3FB04435B0901FBA7
:102C200003F1FEF7C5F9336803F4F0134FF0A04247
:102C30000021C2F80C35C2F8081570BD4FF0A04352
:102C400000224FF4C0104FF4C021C3F80805C3F8A8
:102C50000C25C3F80C15C3F8082570BD40020020F0
:102C600090020020680200201C0200203C0200208C
:102C7000440200201F85EB511A4A13684FF0A04010
:102C8000002103F4F013C0F80835C0F80C151160EA
:102C900070BD4FF40030C1F80C05C1F8082588E775
:102CA0004FF40031C0F80C150421C0F808253DE7A9
:102CB0004FF40030C1F80C05C1F8082555E74FF472
:102CC0000031C0F80C150221C0F8082507E74FF4C1
:102CD0000031022CC0F80C150CBF02210421C0F8F1
:102CE0000825C6E63C02002003780D2B15D00E2BDC
:102CF00015D00F2B04D0102B08BF032301D0704731
:102D00000223084A03EB4303134458780028F6D003
:102D1000054B1B68002BF2D018470023F1E7012375
:102D2000EFE700BF980200206C020020F8B5234DA9
:102D3000234E244B2860044610F0020031601A60D4
:102D40001FD0214B21484FF00D0E0E270F261025C6
:102D50004A0883F800E00421DF709E715D72FDF780
:102D60007BFCF0B1E3070BD54FF0A0434FF4F0121A
:102D70000021C3F80825C3F80C15C3F8182510B1B5
:102D8000F8BDE207F0D41248124A0021FEF7FEF81F
:102D90000028F5D11048114A0121BDE8F840FEF79E
:102DA000F5B8FDF7B1FC0028DCD101460C4A0D480E
:102DB000FEF7ECF8E107E2D5D6E700BF40020020BD
:102DC000680200206C020020980200206048000089
:102DD0005C480000352900008048000055280000AC
:102DE000E92C000058480000FDF78EBC704700BF7A
:102DF00070B5214D06460FCD86B001AC0FC40D2E27
:102E00002B68236021D00E2E1DD11C4C2378032B60
:102E100094BF013300232370194D2B78D9071DD49B
:102E20009A0721D45B0702D51648FEF799FF23784D
:102E300006AA02EB8303002253F8143C2A7006B062
:102E4000BDE87040184706B070BD0C4C237883B1C4
:102E50000B4D013B23702B78D907E1D50A48FEF7CB
:102E60007FFF2B789A07DDD50848FEF779FF2B788E
:102E7000D8E704232370CFE784480000EC04002047
:102E800022050020BC000020A0000020A800002097
:102E900070B5124888B000F0A5FD114B186859684C
:102EA0009A6801AB07C30F4801A90022FEF774FE20
:102EB00008B1FDF73FFC0C4B0C4E0FCB357804AC42
:102EC00084E80F0045F001052146064835700122CF
:102ED0000223FEF761FF08B070BD00BF7449000017
:102EE00098480000A0000020A4480000220500200F
:102EF00070B5124888B000F075FD114B186859681C
:102F00009A6801AB07C30F4801A90022FEF744FEEF
:102F100008B1FDF70FFC0C4B0C4E0FCB357804AC11
:102F200084E80F0045F0010521460648357003226C
:102F30000123FEF731FF08B070BD00BF80490000DB
:102F4000B4480000A0000020C04800002205002076
:102F5000F0B5144885B000F045FD134B186859686A
:102F60009A6801AB07C31148114A01A9FEF714FE84
:102F700008B1FDF7DFFB0F4F0F4D3E78DFF840E063
:102F80000A480E49002446F00106012202233E7041
:102F90002C806C80AC80EC808EF80040FEF7FCFE4C
:102FA00005B0F0BD8C490000D0480000A000002012
:102FB000FD35000022050020A80300206449000020
:102FC000B00300202DE9F04FB9489BB000F00AFD96
:102FD0000023FF244FF006084FF0910C4FF0920EA3
:102FE000072747F6122601251A4603A9B14804937C
:102FF00005938DF810808DF80CC08DF80D408DF87C
:103000000F408DF80EE08DF81170ADF814608DF85A
:103010001650FEF7C1FD002840F03581A64BA74FA2
:10302000A74C97F800800FCB04F1640C44EA0C0C19
:1030300048F0010806AE4FF0040941F2883E002531
:103040001CF0070C87F8008086E80F008DF81190BF
:10305000ADF814E08DF8165040F01881DFF8CC92EE
:103060009849DFF8CC82984B2160C4F86890974962
:10307000DFF8C0A2C4F80880A9F14879A9F5487919
:10308000DFF8B482216192492367C4F87890A3F1F4
:103090004873A9F148798F4A8F4DC4F864A0A3F50D
:1030A0004873A9F54879C4F818802162AAF1487AD2
:1030B00008F1487801F1487188486260AAF5487AB9
:1030C000874AE56008F54878864DC4F8803001F5F8
:1030D0004871C4F88890A3F14873A9F14879E06673
:1030E00062618148814AC4F874A0E561DFF84CA2AE
:1030F0007F4DC4F82880A3F54873A9F5487921636A
:1031000008F1487801F14871E067626279487A4ACB
:10311000C4F884A008F54878DFF824A2E562C4F872
:103120009030764D764BC4F8989001F5487109F1CE
:10313000C869C4F88C0062637248734AC4F894A0EA
:10314000C4F83880DFF8FCA1E56309F5AF69DFF862
:10315000F8816E4DC4F8A03021646D4BC4F89C001A
:1031600001F17A716264DFF8E4B16A48A4F862E0C0
:1031700001F57A71684AA4F8C6C0DFF8D4E1DFF837
:10318000D4C1C4F8A8A0C4F84890DFF8CCA1DFF8F7
:10319000CC91C4F84C80C4F8AC50DFF8C481C4F8BA
:1031A000B03041F224356423C4F8A4B020656165D1
:1031B000C4F8B420C4F8B8E0C4F858C0C4F85CA09F
:1031C000C4F8BC90C4F8C080A4F86050A4F8C4301F
:1031D0006FF4D8035148039303A90022FEF7DCFCE7
:1031E00000284DD14E4C3D7894E80F000DF1280891
:1031F000103488E80F0094E80F000DF1380989E8D1
:103200000F0045F00205FF23942403A945483D70B3
:1032100000228DF80C308DF80D308DF80E308DF8C1
:103220000F40FEF7B9FC08B1FDF784FA3E4C97F861
:1032300000E094E80F0012AD103485E80F0094E828
:103240000F0016AC84E80F0002234EF0040E314646
:10325000184887F800E01E460122FEF79DFD414612
:103260004A4600962D480123FEF704FE00962946A3
:1032700022462C480123FEF7FDFD1BB0BDE8F08F70
:10328000FDF758FAAEE7FDF755FAC7E62A46A01E45
:103290007546623402F164039BB2C2F59951043160
:1032A000AB4220F8023F1A4624F8021FF2D18FE702
:1032B00098490000A0000020DC4800002205002002
:1032C000280500206400C800CC1068108403E803BF
:1032D000A40608072C019001BC02200394113011B0
:1032E0004C04B004DC054006740E100E6C07D007C9
:1032F000FC086009540BF00A8C0AF00A1C0C800CC4
:103300006C0708073408D007AC0D100E1405B00484
:103310004C04E8030410681084032003A800002074
:10332000EC480000BC0000200C4900005C12F811C1
:10333000F40158022413C01214057805E40C800C23
:10334000C4096009DC0578053C0FA00FA4064006FF
:10335000BC0258029411F8115C12C012F4019001E1
:103360002C01C8002DE9F04F9D4893B000F03AFBC6
:103370009C4B186859689A6807AB07C39A4807A915
:103380000022FEF709FC002840F01E81974BDFF871
:1033900068E2974D9EF800700FCBC5F341060AAC6A
:1033A000764247F0010784E80F0016F003028EF81A
:1033B000007000F000814FF4C873012A2B8000F0E8
:1033C0000B814FF44873032A6B8040F000814FF467
:1033D00096631621AB8003910292C2F11506C6F3E3
:1033E0008506711C88000591C2F11901C9B2C0B2ED
:1033F000049103F5C87A1FFA8AF84FF0000EF446DC
:1034000008F5C8616AF30F0E08F5C87868F31F4E17
:1034100045F812E003F5966E05EB4202E046E246FF
:103420006EF30F0C03F5C86E6EF31F4C89B2C2F831
:1034300004C003F5FA6C01F5C869D64601F5C871F8
:103440006CF30F0A61F31F4AC2F808A003F52F6A54
:103450006AF30F0E03F5486A6AF31F4E1FFA89F9E3
:10346000C2F80CE003F5616EC44609F5C87609F5AB
:10347000C867C34603F589596EF30F0866F31F4802
:1034800009F1100969F30F0BC2F8108003F5A25976
:1034900003F5965868F31F4BBFB209F1100903F505
:1034A000BB5A03F5D458E64607F5C86108F1100881
:1034B00007F5C8770AF1100AC2F814B0E34669F3B9
:1034C0000F0C67F31F4C89B277466AF30F0B68F352
:1034D0000F0E03F5ED5903F5C85868F31F4B09F1BA
:1034E000100901F5C878059EC2F818C068F31F4E90
:1034F00069F30F0703F5FA5868F31F4701F5C86130
:1035000003F5095803F50F5C062EC2F820E0C2F857
:103510001CB089B2576208F120080CF1300C03F599
:10352000FA5E13D1002637460EF5C87E08F5C87836
:1035300001F5C8710CF5C87C68F30F076EF30F0630
:103540006CF31F4761F31F46D7629662039900EB45
:10355000800202EB8206091A03EB0613029ACEB22E
:10356000049902448142D2B29BB214D003F5C870D0
:10357000511C012E25F81200C9B21D4D0BD002328C
:1035800003F54870022ED2B225F8110003D003F5DE
:10359000966325F81230174B0FCB0EAD022685E847
:1035A0000F0000962A4621460F480123FEF762FCD1
:1035B00013B0BDE8F08F19230493039306230593FA
:1035C00018200292134614E7FDF7B4F8DEE617213F
:1035D00003910221029100E7182103910292FCE677
:1035E000A44900002C490000A00000203849000038
:1035F000F0040020484900002205002070B930B4D2
:103600000F4C104922785008D50731F8103006D5F4
:10361000C83B9BB24BB121F8103030BC7047C83367
:103620009BB242F20F75AB42F5D90132D2B2072AF2
:1036300021F8103002D900232370EEE72270ECE766
:10364000B0030020A803002000B589B0FDF798FE64
:10365000002833D10020FDF7ABFE002003460321F4
:103660001E4AFDF725FC002834D1022040F6CD414A
:103670001B4AFFF75BFB50BBFFF7B6FB20BB194BA8
:10368000194A049293E8070001AB83E80700174D3D
:10369000174A0695012618464FF4807404A906239C
:1036A00005960794FDF7CCFD58B9124800F09AF939
:1036B000FFF74EFC20BF40BF20BFFBE7FDF73AF805
:1036C000C8E7FDF737F8F0E7FDF734F8D7E7FDF77F
:1036D00031F8D1E7FDF72EF8C7E700BFB4030020AB
:1036E000F12D000058490000A4020020A80200208B
:1036F000ED2D0000B0490000F0B5984B1B78062B6B
:103700001AD0974AD2F8883043F47003C2F8883050
:10371000BFF34F8FBFF36F8F4FF01023D3F800220A
:10372000002AC0F2EA80D3F80432002BC0F2E58010
:103730008C4B8D4A1A60F0BD8C4B1B681D07E0D185
:103740008B4B1B6803F0F003302B00F0D280884BCA
:103750001B6803F0F002302A6FD003F0E003402B27
:103760006BD0834B1B6803F0F003302B00F0B1806B
:103770007F4B1B6803F0F002302A6FD003F0E003A8
:10378000402B6BD07A4B1B6803F0F003302B00F01A
:103790009280774B1B6803F0F003302B72D0744B90
:1037A0001B6803F0F003502BABD14FF08052714BEC
:1037B000D2F80414C3F82015D2F80814C3F824155D
:1037C000D2F80C14C3F82815D2F81014C3F82C152D
:1037D000D2F81414C3F83015D2F81814C3F83415FD
:1037E000D2F81C14C3F84015D2F82014C3F84415BD
:1037F000D2F82414C3F84815D2F82814C3F84C158D
:10380000D2F82C14C3F85015D2F83014C3F854155C
:10381000D2F83414C3F86015D2F83814C3F864151C
:10382000D2F83C14C3F86815D2F84014C3F86C15EC
:10383000D2F84424C3F8702563E74F4B474A1B680E
:1038400012784E49C3F34233062A0B607FF459AF16
:10385000464B1B681C077FF454AF82E73F4B1B7835
:103860004FF080420021062BC2F80C11C2F8101153
:10387000C2F838157FF445AF3C4B1B6819077FF43D
:1038800040AF7FE7354B3E4F1A783E4D3E483F4BA9
:103890004FF0050E012600243F21062AC7F800E05C
:1038A0002E60046019607FF42CAF304B1B681B073F
:1038B0007FF427AF73E7294B354A1B780321062B8A
:1038C00011607FF41EAF294B1B681A077FF419AFF4
:1038D0005FE7304A2149D368097823F080730629CD
:1038E000D3607FF40EAF214B1B6818077FF409AF3C
:1038F0003EE7294B294A1A6029E7294B0122C3F8E0
:103900000425D3F80024002AFBD04FF01023152201
:103910002349C3F80022D1F80034002BFBD04FF02C
:10392000102315221E49C3F80422D1F800241C4B91
:10393000002AFAD00022C3F80425D3F80024002A74
:10394000FBD0BFF34F8F0649164BCA6802F4E06202
:103950001343CB60BFF34F8F00BFFDE7E00F00F0D4
:1039600000ED00E0C40000200090D003E40F00F060
:10397000E80F00F000C00040440200103C05004089
:10398000105600408856004018560040145600401B
:10399000A0050040F0ED00E074C007400DF0ADBAA6
:1039A00000E001400400FA050649074A074B9B1A4C
:1039B00003DD043BC858D050FBDCFFF79DFEFCF74D
:1039C0004DFD0000604A000000000020D4000020EF
:1039D000FEE7FEE7FEE7FEE7FEE7FEE7FEE7FEE7BF
:1039E000FEE7FEE70FB40A4B13B51C6824B1A369C8
:1039F00013B9204600F04EF805AB2046A168049AA2
:103A0000019300F04DF902B0BDE8104004B07047DA
:103A100060000020014900F0A7B800BF5145000038
:103A2000002310B5044603604360836081814366D0
:103A3000C28103614361836119465C300822FCF74F
:103A400081FD054B6362054BA362054BE362054BA9
:103A50002462236310BD00BFFD4100001F4200002F
:103A6000574200007B42000070B568234D1E5D4345
:103A70000E4605F1740100F095F8044640B10021AE
:103A800080E842000C30A06005F16802FCF75AFDA6
:103A9000204670BD836910B5044633BB8364C3649C
:103AA0000365124B124A1B688262984204BF0123CD
:103AB000836100F01FF86060204600F01BF8A060F2
:103AC000204600F017F80421E06000226068FFF74C
:103AD000A7FFA06809210122FFF7A2FFE0681221D9
:103AE0000222FFF79DFF0123A36110BDEC470000F8
:103AF000153A0000F8B51B4B1E68B369074613B9A9
:103B00003046FFF7C7FF4836B4687368013B04D4FA
:103B1000B4F90C5075B16834F8E733682BB93846FE
:103B20000421FFF7A1FF306008B13668ECE70C23F1
:103B30003B60F8BD4FF6FF73E3810123A381656607
:103B40002560A560656025616561A56104F15C0083
:103B500029460822FCF7F6FC6563A563A564E564C5
:103B60002046F8BDEC4700002DE9F8438046894621
:103B700000F14804002694B1A5686768013F0CD4A1
:103B8000AB89012B07D9B5F90E30013303D040467C
:103B90002946C84706436835F0E72468EBE7304616
:103BA000BDE8F88370B5CC1C24F0030408340C2C59
:103BB00038BF0C24002C064603DA0C2333600020A7
:103BC00070BD8C42F9D3204A136810461946A1B142
:103BD0000A68121B0ED40B2A03D90A608B188C506A
:103BE0001FE08B420DBF5A684A685A60026018BFD6
:103BF0000B4616E00B464968E9E7144D2B681BB9E4
:103C0000304600F0EBFA28603046214600F0E6FA34
:103C1000421C0346D1D0C51C25F0030585420AD1BC
:103C20001C6003F10B001A1D20F00700821A0AD055
:103C30005142995070BD3046E91A00F0CFFA013078
:103C4000BBD02B46ECE770BDF4050020F00500204A
:103C50009368013B002B10B5936009DA9469A34285
:103C600002DBCBB20A2B03D1BDE8104000F00ABB47
:103C70001368581C10601970C8B210BDF8B506461C
:103C80000F461446D518AC4208D0304614F8011B34
:103C90003A46FFF7DDFF431CF5D100E00020F8BDF8
:103CA0002DE9F0439DB00D4690460393064618B1AA
:103CB00083690BB9FFF7EEFE754B9D4201D1756824
:103CC00008E0744B9D4201D1B56803E0724B9D4200
:103CD00008BFF568AB891C070AD52B6943B10023DF
:103CE000099320238DF8293030238DF82A3041E0C4
:103CF0003046294600F02CFB0028F0D04FF0FF3072
:103D0000C2E0039A111D12680391002ABBBF524200
:103D100043F0020307920792B8BF0493013423785B
:103D20002E2B7BD0DFF8808121784046032200F0E3
:103D300099FC38B1049AC8EB000040238340134338
:103D400004930134217855488DF82810062204F197
:103D5000010800F087FC002800F08580504B002B04
:103D600078D1039B073323F0070308330393099BA0
:103D70003B44099343461C4613F8012B1AB9B4EB94
:103D800008090ED002E0252AF5D1F8E73046294689
:103D900042464B46FFF772FF013070D0099B4B44FF
:103DA00009932378002B6AD000234FF0FF3204934D
:103DB0000793059206938DF853301A9304F1010886
:103DC0004446DFF8E89021784846052200F04AFC96
:103DD00008F10108049B30B1C9EB000001228240C8
:103DE00013430493ECE7D80644BF20228DF85320F8
:103DF000190744BF2B228DF8532022782A2A80D01D
:103E0000079923461C4601332278303A092A03D801
:103E10000A2000FB0121F5E7079180E763782A2B50
:103E20000AD1039B1A1D1B680392002BB8BF4FF0E9
:103E3000FF330234059375E7611C00220C46013103
:103E40002378303B092B03D80A2000FB0232F5E728
:103E5000059267E703AB0093304604A92A46114B4D
:103E6000AFF3008007E003AB0093304604A92A4675
:103E70000C4B00F093F8421C07467FF478AFAB89F7
:103E80005B063FF53BAF09981DB0BDE8F08300BF6E
:103E9000C0490000E0490000004A00002A4A000032
:103EA000000000007D3C0000264A0000204A00007F
:103EB0002DE9F84391461F468A680B69DDF820809A
:103EC0009342B8BF1346C9F8003091F84320064624
:103ED0000C4612B10133C9F800302368990642BF7D
:103EE000D9F800300233C9F80030256815F006050E
:103EF0001CD094F843302268003318BF0123920687
:103F00001FD5E1185A1C302081F84300224494F850
:103F1000451082F84310023313E03046394604F16D
:103F200019020123C047013007D00135E368D9F8F1
:103F300000209B1A9D42F0DBDBE74FF0FF30BDE82D
:103F4000F8833046394604F14302C0470130F4D0CB
:103F50002268D9F80050E36802F00602042A08BF7C
:103F60005D1B2269A3680CBF25EAE5750025934215
:103F7000C4BF9B1AED184FF00009A9450ADA304674
:103F8000394604F11A020123C0470130D5D009F1A6
:103F90000109F2E70020BDE8F88300002DE9FF41A8
:103FA0000C461746227E6E2A984606460A9B01F169
:103FB000430100F0AF8012D8632A23D00AD8002A28
:103FC00000F0BC80582A40F0CB8084F84520DFF810
:103FD00004E257E0642A1ED0692A1CD0C0E0732A8C
:103FE00000F0B08009D86F2A2ED0702A40F0B88037
:103FF000226842F0200222603FE0752A24D0782A0D
:104000003BD0ADE01A68111D1960136884F8423086
:1040100004F14205A8E020681A6810F0800F02D071
:10402000101D186008E010F0400F02F10400186045
:1040300002D0B2F9003000E01368002B3EDA2D22E6
:104040005B4284F8432039E020681A6810F0800F42
:1040500002D0101D186007E010F0400F02F10400BC
:10406000186001D0138800E01368227EDFF864E155
:104070006F2A0CBF08220A221CE07822DFF858E1E0
:1040800084F845202268186812F0800F00F10405BA
:104090001D6003D1550601D5038800E00368D007F1
:1040A00044BF42F0200222601BB9226822F02002A5
:1040B00022601022002084F8430002E0DFF814E1BF
:1040C0000A226568A560002DA2BF206820F00400C8
:1040D000206003B965B10D46B3FBF2F002FB10336B
:1040E0001EF8033005F8013D03460028F4D100E036
:1040F0000D46082A0BD12368DA0708D523696268C0
:104100009A42DEBF302305F8013C05F1FF35491B1B
:1041100021612EE025681A68606915F0800F03D0D0
:10412000151D1D60136808E015F0400F02F104052D
:104130001D60136801D0188000E01860002323611F
:104140000D4616E01A68111D196015686268284648
:10415000002100F087FA08B1401B6060636804E04A
:1041600004F1420584F8422001232361002384F8EE
:104170004330CDF800803046214603AA3B46FFF786
:1041800097FE013002D14FF0FF301FE03046394634
:104190002A462369C0470130F5D023689B0705D420
:1041A000E068039B9842B8BF18460FE00025E3681B
:1041B000039A9B1A9D42F3DA3046394604F11902FC
:1041C0000123C0470130DED00135F0E704B0BDE87F
:1041D000F08100BF314A0000424A000038B5064C69
:1041E000002305460846236000F0E4FA431C02D190
:1041F000236803B12B6038BDFC05002010B50C46C8
:10420000B1F90E1000F082FA0028ABBF636DA389EC
:104210001B1823F48053ACBF6365A38110BD2DE947
:10422000F0411D468B89DB0507460C46164605D531
:10423000B1F90E100022022300F0B4F9A389B4F9F9
:104240000E1023F48053A381384632462B46BDE836
:10425000F04100F06BB810B50C46B1F90E1000F04B
:10426000A1F9431CA38915BF606523F4805343F46F
:104270008053A38118BFA38110BDB1F90E1000F0C7
:10428000D3B8000070B50D461446064618B18369D0
:104290000BB9FFF7FFFB224B9C4201D1746808E089
:1042A000204B9C4201D1B46803E01F4B9C4208BFE5
:1042B000F468A369A360A3891A0709D523693BB1F0
:1042C00023682069181A63699842EDB20FDB08E091
:1042D0003046214600F03CF80028F1D04FF0FF3086
:1042E00070BD3046214600F033F90028F6D1A368AE
:1042F000013BA36023685A1C22601D706369013072
:10430000984204D0A389DB0707D50A2D05D1304692
:10431000214600F01DF90028E0D1284670BD00BFFD
:10432000C0490000E0490000004A000038B5074CD1
:10433000054600202060084611461A46FCF708FF93
:10434000431C02D1236803B12B6038BDFC0500205B
:10435000314B70B51D6806460C4625B1AB6913B9E3
:104360002846FFF797FB2D4B9C4201D16C6808E073
:104370002B4B9C4201D1AC6803E02A4B9C4208BF06
:10438000EC68A3899AB211071DD4D50602D409227C
:10439000326038E0500712D5616B41B104F144033B
:1043A000994202D0304600F06DF900236363A3897F
:1043B00023F02403A3810023636023692360A3897E
:1043C00043F00803A38123694BB9A38903F4207345
:1043D000B3F5007F03D03046214600F0F5F8A389FD
:1043E00013F0010205D00022A26062695242A2616C
:1043F00003E0990758BF6269A26022694AB903F0D5
:10440000800080B230B143F04003A3814FF0FF3011
:1044100070BD002070BD00BF60000020C0490000DA
:10442000E0490000004A000038B5064C002305466C
:104430000846236000F09EF9431C02D1236803B1B3
:104440002B6038BDFC0500208A892DE9F041054626
:1044500010070C4657D44B68002B02DC0B6C002B6A
:1044600018DDE66AB6B102F48052002392B22F68DA
:104470002B600AB1626D10E0216A28460123B04723
:10448000411C024609D12B683BB11D2B01D0162BD4
:1044900047D12F600020BDE8F081A3895B0705D5D7
:1044A0006368D21A636B0BB1236CD21AE66A216A75
:1044B00000232846B047461CA38905D12A681AB1B3
:1044C0001D2A01D0162A19D100226260D90422695E
:1044D000226004D5421C01D12B6803B96065616B71
:1044E0002F600029D6D004F14403994202D0284617
:1044F00000F0C8F800206063BDE8F08143F040039D
:10450000A381BDE8F0810F69002FC3D093070E6827
:1045100008BF4B690F6018BF0023C7EB06088B600C
:1045200012E0A38943F04003A3814FF0FF30BDE8C0
:10453000F0812846216AA66A3A464346B0470028D9
:10454000EFDD0744C0EB0808B8F1000FF1DCA1E78C
:1045500038B50B6905460C46DBB118B183690BB958
:10456000FFF798FA0C4B9C4201D16C6808E00B4BAA
:104570009C4201D1AC6803E0094B9C4208BFEC6847
:10458000B4F90C302BB128462146BDE83840FFF77E
:104590005BBF002038BD00BFC0490000E0490000FB
:1045A000004A000038B5074C054600202060084648
:1045B00011461A4600F0F6F8431C02D1236803B1F5
:1045C0002B6038BDFC050020F0B58B899D0791B0AC
:1045D00006460C4626D4B1F90E10002909DAA38943
:1045E00013F0800F4FF0000514BF40274FF4806791
:1045F0000DE001AA00F09CF80028F0DB029D05F414
:104600007045A5F500514D424D414FF4806730464D
:104610003946FFF7C7FA60B9A3899A051DD443F05C
:104620000203A38104F14703236023610123636133
:1046300013E00B4BB362A389206043F08003A38196
:10464000206167614DB13046B4F90E1000F082F878
:1046500018B1A38943F00103A38111B0F0BD00BFDD
:10466000153A000010B5C9B202449042034606D084
:104670001C788C4200F10100F7D1184610BD0020D3
:1046800010BD000030B500293DD051F8042C0B1F9F
:104690001D49002AB8BF9B180A680C4612B95A6017
:1046A0000B6030BD93420DD219685818904201BF7B
:1046B0005A5852181A6042685A60236030BD9942B5
:1046C00003D80A4651680029F9D1146815199D428A
:1046D0000AD11B682344D0188842136013D108689C
:1046E000034413604B680DE002D90C23036030BD16
:1046F0001C681819884204BF08684968596004BFDB
:1047000000191860536030BDF405002038B5074C1F
:10471000054600202060084611461A46FCF726FD93
:10472000431C02D1236803B12B6038BDFC05002077
:1047300038B5074C0023054608461146236000F0B3
:1047400021F8431C02D1236803B12B6038BD00BFA0
:10475000FC05002038B5064C0023054608462360BA
:1047600000F018F8431C02D1236803B12B6038BD58
:10477000FC050020024B58221A604FF0FF307047B2
:10478000FC050020024B58221A604FF0FF307047A2
:10479000FC050020024B58221A600020704700BF21
:1047A000FC050020024B58221A604FF0FF30704782
:1047B000FC050020044A05491368002B08BF0B467E
:1047C0001844106018467047F805002000060020C5
:1047D000F8B500BFF8BC08BC9E467047F8B500BFEE
:1047E000F8BC08BC9E467047430000000000002053
:1047F000FC00002006000000080000000700000088
:104800000500000000000000000000000000D601CC
:10481000060000000203040506040000E80300008F
:104820000203040506040000E80300000203040577
:1048300006040000E8030000060000000800000075
:10484000070000000500000000000000000000005C
:104850000000D60106000000700200201C020020AB
:104860000D000300712800000E00030071280000F5
:104870000F000300712800001000030071280000E1
:1048800044020020512F000065330000F12E00008B
:10489000C52F0000912E000091939492060700000E
:1048A000093D02006400002010000000000000002C
:1048B0000000000091FFFFFF06070000A861000054
:1048C000B00000200600000000000000040000000E
:1048D000919294930604000010270200900000209B
:1048E0000800000001000000000000002805002072
:1048F000640000000000000000000000240500200B
:1049000002000000950000000000000024050020C7
:104910000200000031000000000000002805002017
:1049200064000000020000000000000091929394D7
:104930000605000010270000F00400201900000008
:1049400001000000000000008400002006000000BC
:104950000400000000000000080605070100000038
:1049600000E0D701A80300200400000000000000C0
:104970000000000044656D6F20350D0A0000000046
:1049800044656D6F20330D0A0000000044656D6FB3
:1049900020310D0A0000000044656D6F20340D0ABF
:1049A0000000000044656D6F20320D0A0000000019
:1049B0000D0A50574D206578616D706C650D0A00C9
:1049C00000000000000000000000000000000000E7
:1049D00000000000000000000000000000000000D7
:1049E00000000000000000000000000000000000C7
:1049F00000000000000000000000000000000000B7
:104A000000000000000000000000000000000000A6
:104A10000000000000000000000000000000000096
:104A2000232D302B2000686C4C0065666745464797
:104A3000003031323334353637383941424344451A
:104A40004600303132333435363738396162636489
:084A5000656600000000000093
:084A580004BAFF7F0100000019
:104A600000000000C0490000E0490000004A0000CA
:104A70000000000000000000000000000000000036
:104A8000E8470000000000000000000000000000F7
:104A90000000000000000000000000000000000016
:104AA0000000000000000000000000000000000006
:104AB00000000000000000000000000000000000F6
:104AC00000000020008000000000000000000080C6
:104AD0000000000000000000008000000000000056
:104AE0000000008000000080000000800000000046
:104AF00000000000008000000000008000800080B6
:104B000000C0014000000000001002400100000051
:104B100000800000008000000080000000200240B3
:104B2000020000000090D0032504000001040000F2
:044B30000000000081
:04000003000039A917
:00000001FF
