:020000021000EC
:10B00000008000207D590200BD590200BF59020096
:10B010000000000000000000000000000000000030
:10B02000000000000000000000000000C159020004
:10B030000000000000000000C3590200C5590200D2
:10B04000C7590200C75902008D4E0200C7590200BD
:10B050007D4902000000000045440200C75902007B
:10B06000C7590200C7590200C7590200C759020058
:10B07000C7590200C7590200C7590200C759020048
:10B08000C7590200A53C0200C7590200C759020077
:10B09000813D0200C75902004D590200C759020004
:10B0A000C7590200C759020000000000000000005C
:10B0B0000000000000000000000000000000000090
:10B0C00010B5064C2378002B07D1054B002B02D07E
:10B0D000044800E000BF0123237010BD804300201E
:10B0E00000000000B85F020008B5084B002B03D039
:10B0F0000748084900E000BF07480368002B00D15B
:10B1000008BD064B002BFBD09847F9E70000000074
:10B11000B85F0200844300207C4300200000000050
:10B12000164B002B00D1144B9D46402292029A1AD6
:10B13000924600218B460F461348144A121A00F01B
:10B1400067F80F4B002B00D098470E4B002B00D018
:10B1500098470020002104000D000D48002802D06F
:10B160000C4800E000BF00F02DF82000290009F095
:10B1700063FF00F011F8C0460000080000800020C6
:10B180000000000000000000804300204854002020
:10B190000000000000000000084B10B5041C002B4C
:10B1A00002D0002100E000BF054B1868836A002B25
:10B1B00000D09847201C00F033F8C0460000000083
:10B1C000145A02000E4B70B500251E1C0D4CE41ADB
:10B1D000A410A54204D0AB00F35898470135F8E716
:10B1E0000AF00AFC084B00251E1C084CE41AA410A7
:10B1F000A54204D0AB00F35898470135F8E770BD7D
:10B2000074430020744300207443002078430020DE
:10B21000031C8218934202D019700133FAE7704779
:10B22000FEE7C04670B5041C82B00E20002C0CD086
:10B23000002A0AD00023151C0193201C531C01AACC
:10B240000E1C05F0EBF8002801D002B070BD201CE8
:10B25000311C01AA2B1C05F0E1F80028F5D16B1D6B
:10B26000201C311C01AA05F0D9F80028EDD1019B62
:10B270000930F11A4E1EB14149420840E5E7C04687
:10B2800010B584B001900E2000290DD0002A0BD0FB
:10B290000023141C039301A8126803AB05F03EF8C9
:10B2A000002801D1039B236004B010BD012330B5F9
:10B2B00085B0041C03930E20002C15D0002A13D057
:10B2C0001368002B10D0131C084A201C009203AAFC
:10B2D0000D1C05F041FE002806D1039B0930591BC7
:10B2E0004D1EA9414942084005B030BDB1090200D8
:10B2F000131C002230B5051C0C1C85B0039203AA58
:10B300000092291C221C602005F0ECF905B030BD2C
:10B3100070B5002A0BD0002B09D0002807D0048874
:10B32000702C00D977E03E4EA4003459A7460E2079
:10B3300070BD04F0E9FDFBE700F074F8F8E700F0F9
:10B34000D7F8F5E700F08AF8F2E700F01DFFEFE725
:10B3500000F04AFFECE700F083FEE9E701F0A0F817
:10B36000E6E701F06DF8E3E700F0DEFFE0E700F06C
:10B370006BFFDDE700F0EAFDDAE700F095FFD7E7C5
:10B3800000F014FED4E700F0CFFED1E701F0E8F8BA
:10B39000CEE700F0FFFFCBE700F07EFDC8E701F04D
:10B3A000AFF8C5E700F08EFEC2E701F00FF8BFE787
:10B3B00003F0B6F8BCE703F043F9B9E702F01AFF6F
:10B3C000B6E703F021F8B3E702F0CCFEB0E702F0F5
:10B3D0009BFFADE703F0F2F8AAE702F0D3FFA7E77F
:10B3E00003F092F9A4E703F05BF8A1E703F070F92A
:10B3F0009EE703F035FE9BE703F098FD98E703F026
:10B40000F7FD95E703F074FD92E703F0D9FD8FE7B0
:10B4100003F00AFE8CE7002206201A6088E7C04687
:10B42000185A020010B5011E15D0002A13D0002BA7
:10B4300011D01C680920042C0ED908381070002087
:10B44000507088889070000AD070097A00201171BD
:10B4500005221A6000E00E2010BDC046F0B5041CA5
:10B4600083B00E20002C13D0002A11D0002B0FD057
:10B470001E1C002301936B46981C03233768151C80
:10B480000380111C01AB3A1C04F086FF002801D098
:10B4900003B0F0BD201D291C3A1C01AB04F07CFF59
:10B4A0000028F5D1201C291C0830326801AB04F0BB
:10B4B000A7FF0028ECD1201C291C1030326801ABFA
:10B4C00004F06AFF0028E3D1019B326809309A42F8
:10B4D000DED05A1C0192E268511E8A41EA54A088CB
:10B4E00005F008FE0028D3D1019B3360D0E7C046A9
:10B4F000F0B5041C83B00E20002C13D0002A11D00C
:10B50000002B0FD01E1C002301936B46981C0223B6
:10B510003768151C0380111C01AB3A1C04F03CFF7A
:10B52000002801D003B0F0BD201D291C3A1C01AB3E
:10B5300004F032FF0028F5D1201C291C08303268A5
:10B5400001AB04F05DFF0028ECD1019B3360E9E71B
:10B5500010B5031E11D0002A0FD001290BD9047891
:10B560000720712C00D010BD5B78002B00D1136038
:10B5700000200229F7D00920F5E70E20F3E7C046A6
:10B58000F0B5474680B4002923D0002A21D0161CEC
:10B590000D1C041C1F1C136871209846211C2A1CBA
:10B5A000331C04F0A1FE002814D13168002C11D105
:10B5B000002F0ED0CC1D0930A0450BD33B780622BE
:10B5C0006B5401316818791C0AF00DFA34600020C0
:10B5D00000E00E2004BC9046F0BDC04670B5041CCF
:10B5E000012084B00390002C22D0002A20D0002B10
:10B5F0001ED01D680D30002D1BD01D1C201C131CDF
:10B6000003AA0E1C04F00AFF002812D10A4B201CCA
:10B610000093311C03AA2B1C05F09EFC002808D1C6
:10B62000039B0930991B4E1EB1414942084000E07E
:10B630000E2004B070BDC04689CC0100131C00224E
:10B6400030B5051C0C1C85B0039203AA0092291C7E
:10B65000221C702005F046F805B030BD30B5041C42
:10B6600085B00E20002C10D0002B0ED0099D002D8F
:10B670000BD0181C131C012200900392201C03AA5B
:10B680000D1C04F0E5FE002801D005B030BD099B7B
:10B69000201C0093291C03AA089B04F0D9FE002853
:10B6A000F3D1039B0930591B4D1EA9414942084063
:10B6B000EBE7C04638B5051C0C1C131C291C221CCA
:10B6C000722004F011FE38BD002370B584B0051E51
:10B6D000039355D0002A53D01368002B50D05868DC
:10B6E00000284DD0DC68002C4AD02068002847D0C4
:10B6F000A468002C44D00668002E41D04668002E75
:10B700003ED08668002E3BD0C668002E38D0066931
:10B71000002E35D04669002E32D08669002E2FD0FB
:10B72000C06900282CD02068002829D06068002833
:10B7300026D0A068002823D0E068002820D0206907
:10B7400000281DD0606900281AD0A069002817D0F1
:10B75000E069002814D0012910D92C780720732C17
:10B760000FD1141C022203926A780E1C012A0AD0FF
:10B7700000232360023300209E4202D0092000E013
:10B780000E2004B070BD281C03AA04F047FE002858
:10B79000F7D123681D4A04330092281C311C03AAE8
:10B7A00005F0DAFB0028ECD12368281C0833311C93
:10B7B00003AA04F033FE0028E3D12368144A0C33B3
:10B7C0000092281C311C03AA05F0C6FB0028D8D122
:10B7D0002368281C1033311C03AA04F0EFFD002855
:10B7E000CFD12368281C1233311C03AA04F0E6FDD4
:10B7F0000028C6D12368281C1433311C03AA02F088
:10B8000055FA039B0028B6D0BBE7C04689CC01009F
:10B810005DCD010038B5051C0C1C131C291C221C15
:10B82000732004F061FD38BD38B5051C0C1C131CD9
:10B83000291C221C742004F057FD38BD031E11D0B2
:10B84000002A0FD0106800280CD0092002290AD144
:10B8500019780238792906D15B78002B00D1136062
:10B86000002000E00E207047F0B5474680B4002964
:10B8700020D0002A1ED0161C0D1C041C1F1C13688F
:10B8800079209846211C2A1C331C04F02DFD002829
:10B8900011D1002C0FD1002F0CD0316809308B1C36
:10B8A000984508D33A8869180A70120A4A7000202D
:10B8B000336000E00E2004BC9046F0BD10B5041CBF
:10B8C00082B0002A06D0002804D00920032903D022
:10B8D00002B010BD0E20FBE701230193237802384C
:10B8E000782BF5D1131C201C01AA04F067FDEFE7AB
:10B8F00038B5051C0C1C131C291C221C782004F0D4
:10B90000F3FC38BD70B584B000280AD0002A08D0F6
:10B91000002B06D0012403944C1E012C04D80920CE
:10B9200000E00E2004B070BD1E1C131C03AA0D1CE9
:10B93000041C04F055FD039B9D42F0D0331C201CD9
:10B94000291C03AA04F078FD3378012B13D0002BB7
:10B9500015D0022B11D1102300930193201C291C18
:10B9600003AA089B04F004FF0028DBD1039B9D423F
:10B97000D8D00920D6E70623EEE70720D2E7002338
:10B98000EAE7C04638B5051C0C1C131C291C221CF8
:10B99000802004F0A9FC38BD70B5041C012084B0DF
:10B9A0000390002C22D0002A20D0002B1ED01D682E
:10B9B0000D30002D1BD01D1C201C131C03AA0E1CB7
:10B9C00004F0FCFC002812D10A4B201C0093311C0F
:10B9D00003AA2B1C05F0C0FA002808D1039B0930EC
:10B9E000991B4E1EB1414942084000E00E2004B0B0
:10B9F00070BDC046D5D3010038B5051C0C1C131C06
:10BA0000291C221C7E2004F06FFC38BD70B582B06A
:10BA100000280AD0002A08D0002B06D01C68002C71
:10BA200003D0032905D8092400E00E24201C02B00D
:10BA300070BD05780724752DF8D11D1C131C01223B
:10BA4000041C019201AA0E1C04F0CAFC019BE25CDA
:10BA5000012A09D00B24002AE8D101332A600024EE
:10BA60009E42E3D00924E1E75A1C093301929E4229
:10BA7000D9D3201C311C01AA2B6804F0B1FC2B681F
:10BA8000201C0233311C01AA04F0AAFC2B68201CE4
:10BA90000433311C01AA04F0A3FC2B68201C0633DC
:10BAA000311C01AA04F09CFC019BD8E738B5051CA9
:10BAB0000C1C131C291C221C752004F015FC38BD1D
:10BAC000F0B54F464646C0B485B000280BD0002ADA
:10BAD00009D000270397002907D1092005B00CBC25
:10BAE00090469946F0BD0E20F8E70B266E44994625
:10BAF0009046331C03AA041C0D1C04F09DFC3378F3
:10BB00000720872BEAD1039BEB1A012BE5D9201CD8
:10BB1000291C03AA434604F063FC0097201C291C3F
:10BB200003AA4B4605F018FA0028D7D1039BAB4275
:10BB3000D3D1D3E7F0B5474680B4041C84B00E20BF
:10BB4000002A11D0002B0FD01E1C1B680F1C98461A
:10BB50007930211C331C151C04F0C6FB002803D1CE
:10BB600033680393002C03D004B004BC9046F0BDAE
:10BB7000064B381C0093291C424603AB05F0D2F952
:10BB80000028F1D1039B3360EEE7C04625D20100C7
:10BB900070B5041C012086B00590002C3AD0002A14
:10BBA00038D01068002835D0002B33D01868002812
:10BBB00030D00A9800282DD000680390039D0E20F5
:10BBC000002D28D01D1C131C144A201C009205AA0D
:10BBD0000E1C05F0C1F900281DD1114B201C00934B
:10BBE000311C05AA2B1C05F0B7F9002813D10D4B09
:10BBF000201C0093311C05AA0A9B05F0ADF9002812
:10BC000009D1059B09309B1B191C4B1E99414B42C6
:10BC1000184000E00E2006B070BDC04689CC01007F
:10BC200075D70100DDD6010038B5051C0C1C131CAE
:10BC3000291C221C8C2004F057FB38BD38B5051C8C
:10BC40000C1C131C291C221C8D2004F04DFB38BD3C
:10BC5000F0B5474680B482B0002B09D01D68002D96
:10BC600006D0002906D1092002B004BC9046F0BDE0
:10BC70000E20F9E74678012E01D90720F4E7904617
:10BC800002220C1C071C0192012E0ED000221A6009
:10BC9000032302329C42E6D3BB5C012BEDD800208B
:10BCA000002BE1D143461860DEE701AA2B1C04F00B
:10BCB00085FB0028D8D1019A531CEBE7F0B54F461D
:10BCC0004646C0B485B0051C0C9C0E20002B12D03B
:10BCD000002C10D01E1C2368171C884699466F3014
:10BCE000231C291C321C04F0FFFA2368039300284C
:10BCF00001D1002D04D005B00CBC90469946F0BD92
:10BD000003AB009340464B46391C321C04F0D8FB71
:10BD1000039B2360EFE7C04670B584B000280DD0C8
:10BD2000002A0BD0002B09D0089C002C06D001243F
:10BD300003944C1E032C04D8092000E00E2004B00C
:10BD400070BD1D1C131C0C4A0E1C009203AA041C7F
:10BD500005F002F90028F2D1089B201C0093311C49
:10BD600003AA2B1C04F0DAFB0028E8D1039BB342A2
:10BD7000E5D00920E3E7C046ADD1010038B5051C88
:10BD80000C1C131C291C221C7C2004F0ADFA38BDAD
:10BD9000F0B5041C83B00E20002C15D0002A13D05F
:10BDA000002B11D01F1C002301936B46151C201C77
:10BDB00001AA03330E1C04F031FB002804D16B46AA
:10BDC000DB780730762B01D003B0F0BD201C311C8E
:10BDD00001AA2B1C04F0F2FA0028F5D1201C311C1A
:10BDE00001AA3B1C04F01AFB0028EDD1019B09308D
:10BDF0009B1B5E1EB3415B421840E5E738B5051C4E
:10BE00000C1C131C291C221C762004F06DFA38BD72
:10BE100070B5041C86B000282DD0002A2BD00A98BB
:10BE2000002828D0002B26D000680390002822D0BC
:10BE3000186800281FD001204D1E05900830012DE4
:10BE40001AD91D1C0E1C131C201C05AA04F0C8FACC
:10BE50000A4B201C0093311C05AA2B1C05F07CF812
:10BE6000002809D1064B201C0093311C05AA0A9B0F
:10BE700005F072F800E00E2006B070BD41D7010059
:10BE800019D0010038B5051C0C1C131C291C221CE0
:10BE9000852004F029FA38BDF0B5041C85B00E20C9
:10BEA000002C13D0002A11D0002B0FD01E1C002311
:10BEB00037680438039368441D33151C0380111C34
:10BEC00003AB3A1C04F068FA002801D005B0F0BDBD
:10BED000201D291C3A1C03AB04F05EFA0028F5D1A2
:10BEE000201C291C08303A1C03AB00F0B3FE0028CC
:10BEF000ECD1201C291C0F303A1C03AB04F080FA53
:10BF00000028E3D10622237C09301A40111CDA08EC
:10BF1000D200DB070A43DB0F134368440370291C7C
:10BF20003A1C03AB04F06CFA0028CFD1201C217C12
:10BF300003AB00931130C9082A1C3B1C04F04AFCD7
:10BF40000028C3D1039B3360C0E7C046F0B5041C92
:10BF500083B00E20002C13D0002A11D0002B0FD05C
:10BF60001E1C002301936B46981C17233768151C71
:10BF70000380111C01AB3A1C04F00EFA002801D01A
:10BF800003B0F0BD201D291C3A1C01AB04F004FADB
:10BF90000028F5D1201C291C08303A1C01AB04F004
:10BFA0002FFA0028ECD1019B3360E9E7F0B5474652
:10BFB000002180B484B0029119246946CC800631F6
:10BFC000002816D0002A14D00B3C002B0CD01F1CCC
:10BFD0001B68161C051C9846081C111C1A1C02AB79
:10BFE00004F0DAF9041E06D0201C04B004BC90460C
:10BFF000F0BD0E24F8E7281D311C424602AB04F0C8
:10C00000CBF9041EF0D1281C311C0830424602AB8B
:10C0100001F03EF8041EE7D16B7A5B0703D4029B64
:10C0200000243B60E0E7A88803A904F0FFFF041E9A
:10C03000DAD19620039B40005843084B311CC018AE
:10C040000430424602AB01F0E7FB041ECCD1A888C5
:10C0500004F0D2FF041EE2D0C6E7C046884F00209D
:10C06000F0B5041C83B0002828D0002A26D0002B6D
:10C0700024D001880720122921D11E1C00233768F3
:10C08000151C0193111C201C3A1C01AB04F084F90F
:10C09000002814D1201D291C3A1C01AB04F07CF9A6
:10C0A00000280CD1201C291C08303A1C01AB01F0DF
:10C0B000D1FA002803D1019B336000E00E2003B0C9
:10C0C000F0BDC046F0B5041C83B0002828D0002A7B
:10C0D00026D0002B24D0018807201F2921D11E1C27
:10C0E00000233768151C0193111C201C3A1C01AB5E
:10C0F00004F052F9002814D1201D291C3A1C01AB70
:10C1000004F04AF900280CD1201C291C08303A1CE4
:10C1100001AB01F0C1FA002803D1019B336000E0BC
:10C120000E2003B0F0BDC046F0B5041C83B00E2055
:10C13000002C13D0002A11D0002B0FD01E1C00237E
:10C1400001936B46981C1A233768151C0380111C39
:10C1500001AB3A1C04F020F9002801D003B0F0BD77
:10C16000201D291C3A1C01AB04F016F90028F5D15A
:10C17000201C291C08303A1C01AB01F035F80028BE
:10C18000ECD1019B3360E9E7F0B5041C83B00E20CD
:10C19000002C13D0002A11D0002B0FD01E1C00231E
:10C1A00001936B46981C10233768151C0380111CE3
:10C1B00001AB3A1C04F0F0F8002801D003B0F0BD48
:10C1C000201D291C3A1C01AB04F0E6F80028F5D12B
:10C1D000201C291C08303A1C01AB01F089F800280A
:10C1E000ECD1019B3360E9E7F0B5041C83B00E206D
:10C1F000002C13D0002A11D0002B0FD01E1C0023BE
:10C2000001936B46981C11233768151C0380111C81
:10C2100001AB3A1C04F0C0F8002801D003B0F0BD17
:10C22000201D291C3A1C01AB04F0B6F80028F5D1FA
:10C23000201C291C08303A1C01AB01F07DFA0028B3
:10C24000ECD1019B3360E9E7F0B5041C83B00E200C
:10C25000002C13D0002A11D0002B0FD01E1C00235D
:10C2600001936B46981C16233768151C0380111C1C
:10C2700001AB3A1C04F090F8002801D003B0F0BDE7
:10C28000201D291C3A1C01AB04F086F80028F5D1CA
:10C29000201C291C08303A1C01AB04F0B1F800281E
:10C2A000ECD1019B3360E9E7F0B5041C85B00E20AA
:10C2B000002C13D0002A11D0002B0FD01E1C0023FD
:10C2C00037680438039368441833151C0380111C25
:10C2D00003AB3A1C04F060F8002801D005B0F0BDB3
:10C2E000201D291C3A1C03AB04F056F80028F5D198
:10C2F0000C4BA0680093291C3A1C03AB04F012FEFF
:10C300000028EBD1237B0930DB07DB0F6844037087
:10C31000291C3A1C03AB04F073F80028DED1039B00
:10C320003360DBE70DCD010070B5041C82B000283E
:10C330002CD0002A2AD0002B28D0196809200A29DD
:10C3400025D91E1C1523137000235370A388211CAC
:10C3500093701B0AD3700423151C101D083106228C
:10C36000019309F040FB019B291C063301936B46A6
:10C37000D81CA37B3268DB07DB0F037001AB04F032
:10C380003FF8002803D1019B336000E00E2002B08B
:10C3900070BDC04610B5011E15D0002A13D0002B69
:10C3A00011D01C680920042C0ED913301070002005
:10C3B000507088889070000AD070097A002011713E
:10C3C00005221A6000E00E2010BDC046F0B5041C26
:10C3D00083B00E20002C13D0002A11D0002B0FD0D8
:10C3E0001E1C002301936B46981C20233768151CE4
:10C3F0000380111C01AB3A1C03F0CEFF002801D0D2
:10C4000003B0F0BD201D291C3A1C01AB03F0C4FF92
:10C410000028F5D1201C291C09303A1C01AB00F082
:10C4200019FC0028ECD1201C291C08303A1C01AB57
:10C4300003F0E6FF0028E3D1019B3360E0E7C0464C
:10C44000F0B5041C83B00E20002C13D0002A11D0AC
:10C45000002B0FD01E1C002301936B46981C142345
:10C460003768151C0380111C01AB3A1C03F094FFC4
:10C47000002801D003B0F0BD201D291C3A1C01ABDF
:10C4800003F08AFF0028F5D1201C291C08303A1C33
:10C4900001AB00F0E5FE0028ECD1019B3360E9E739
:10C4A000F0B5041C83B00E20002C13D0002A11D04C
:10C4B000002B0FD01E1C002301936B46981C1323E6
:10C4C0003768151C0380111C01AB3A1C03F064FF94
:10C4D000002801D003B0F0BD201D291C3A1C01AB7F
:10C4E00003F05AFF0028F5D1201C291C08303A1C03
:10C4F00001AB01F02FF80028ECD1019B3360E9E794
:10C50000F0B5041C83B00E20002C13D0002A11D0EB
:10C51000002B0FD01E1C002301936B46981C1E237A
:10C520003768151C0380111C01AB3A1C03F034FF63
:10C53000002801D003B0F0BD201D291C3A1C01AB1E
:10C5400003F02AFF0028F5D1201C291C08303A1CD2
:10C5500001AB01F047FA0028ECD1019B3360E9E719
:10C5600010B5011E15D0002A13D0002B11D01C6865
:10C570000920042C0ED912301070002050708888C9
:10C580009070000AD070097A0020117105221A609B
:10C5900000E00E2010BDC04670B5041C012082B022
:10C5A0000190002C0FD0002A0DD00D30002B08D0A8
:10C5B0001D1C201C131C01AA0E1C03F0FFFE0028EA
:10C5C00003D002B070BD0E20FBE7201C311C01AA75
:10C5D0002B1C03F023FF0028F3D1019B0930991B8A
:10C5E0004E1EB14149420840EBE7C04638B5051C34
:10C5F0000C1C131C291C221C822003F075FE38BD64
:10C6000070B5041C012084B00390002C0FD0002AC8
:10C610000DD00D30002B08D01E1C201C131C03AAAB
:10C620000D1C03F0CBFE002803D004B070BD0E201B
:10C63000FBE7094B201C0093291C03AA331C04F0C0
:10C640008BFC0028F1D1039B0930591B4D1EA941D9
:10C6500049420840E9E7C0463DDD010038B5051C08
:10C660000C1C131C291C221C812003F03DFE38BD2C
:10C6700070B5041C012084B00390002C2CD0002A3B
:10C680002AD00898002827D00E20002B25D01E1C69
:10C69000201C131C03AA0D1C03F090FE00281CD1C3
:10C6A0000F4B201C0093291C03AA331C04F054FCDC
:10C6B000002812D10090291C201C03AA089B04F01A
:10C6C0004BFC002809D1039B09305B1B191C4B1E36
:10C6D00099414B42184000E00E2004B070BDC046A6
:10C6E00035CD0100F0B5474680B4041C84B00E205F
:10C6F000002A11D0002B0FD01E1C1B680F1C98465F
:10C700007530211C331C151C03F0EEFD002803D1ED
:10C7100033680393002C03D004B004BC9046F0BDF2
:10C72000064B381C0093291C424603AB04F0FAFB6D
:10C730000028F1D1039B3360EEE7C04665DD0100C0
:10C74000F0B5041C012085B00390002C2CD0002AE9
:10C750002AD0002B28D00A9D0D30002D25D01E1C7C
:10C76000201C131C03AA0D1C03F028FE00281CD15A
:10C770000F4F201C0097291C03AA331C04F0ECFB6C
:10C78000002812D10097201C291C03AA0A9B04F040
:10C79000E3FB002809D1039B09305B1B191C4B1ECE
:10C7A00099414B42184000E00E2005B0F0BDC04654
:10C7B000D1DD010038B5051C0C1C131C291C221CE2
:10C7C000842003F091FD38BD10B5031E13D0002A5C
:10C7D00011D0106800280ED001290AD91C78072032
:10C7E0007B2C09D15B78002B00D11360002002293B
:10C7F00002D0092000E00E2010BDC046F0B547462B
:10C8000080B4002933D0002A31D0161C0D1C041C22
:10C810001F1C13687B209846211C2A1C331C03F024
:10C8200063FD002824D1002C22D1002F1FD03168B5
:10C8300009300B1C083398451AD33A8868180270DF
:10C84000120A427078888A1CAA181070000A507068
:10C85000B8880A1DAA181070000A5070FA880631AC
:10C8600069180A70120A4A700020336000E00E2036
:10C8700004BC9046F0BDC04670B582B000280CD014
:10C88000002A0AD0012906D9047807237A2C06D079
:10C89000181C02B070BD0923FAE70E23F8E7053B28
:10C8A00001934378151C0E1C041C002B23D0012B74
:10C8B00024D10929EFD91368002BEED001AA03F087
:10C8C0008FFD2B68201C0233311C01AA03F088FD68
:10C8D0002B68201C0433311C01AA03F081FD2B6856
:10C8E000201C0633311C01AA03F07AFD019B9E42F5
:10C8F000D1D10023CCE713600223F8E70B23C7E76D
:10C9000038B5051C0C1C131C291C221C7A2003F0B2
:10C91000EBFC38BD70B5041C82B00E20002C11D089
:10C92000002A0FD0002B0DD0069D002D0AD01E1C12
:10C93000131C0122201C019201AA0D1C03F03EFDD4
:10C94000002801D002B070BD201C291C01AA331C94
:10C9500003F064FD0028F5D1201C291C01AA069BC8
:10C9600003F05CFD0028EDD1019B09305B1B191C15
:10C970004B1E99414B421840E4E7C04638B5051CB0
:10C980000C1C131C291C221C882003F0ADFC38BD94
:10C9900030B5041C83B00E20002C12D0002A10D019
:10C9A000131C0122201C019201AA0D1C03F006FD9C
:10C9B000002806D1019B0930591B4D1EA94149424F
:10C9C000084003B030BDC04638B5051C0C1C131C14
:10C9D000291C221C892003F087FC38BD012330B5B7
:10C9E00085B0041C03930E20002C15D0002A13D010
:10C9F0001368002B10D0131C084A201C009203AAB5
:10CA00000D1C04F0A9FA002806D1039B0930591B1C
:10CA10004D1EA9414942084005B030BD75D70100FF
:10CA200038B5051C0C1C131C291C221C8A2003F081
:10CA30005BFC38BD38B5051C0C1C131C291C221CC2
:10CA40008B2003F051FC38BD70B586B000281DD096
:10CA5000002A1BD0002B19D00A9C002C16D00B9C4E
:10CA6000002C13D01C68002C10D00A9C246803945E
:10CA7000002C0BD00B9C24680394002C06D00124BE
:10CA800005944C1E012C04D8092000E00E2006B0AD
:10CA900070BD1D1C0E1C041C131C05AA03F0A0FC79
:10CAA000114B201C0093311C05AA2B1C04F054FAD6
:10CAB0000028ECD10D4B201C0093311C05AA0A9BC9
:10CAC00004F04AFA0028E2D1094B201C0093311CE3
:10CAD00005AA0B9B04F040FA0028D8D1059B9E4282
:10CAE000D5D00920D3E7C04619D001002DCC0100D4
:10CAF000E5CC010038B5051C0C1C131C291C221C9C
:10CB0000862003F0F1FB38BD70B5041C012086B00F
:10CB10000590002C40D0002A3ED0002B3CD00A9833
:10CB2000002839D000680390002835D00B980028E1
:10CB300032D000680390039D0E20002D2DD01D1CC7
:10CB4000201C131C05AA0E1C03F038FC002824D15D
:10CB5000201C311C05AA2B1C03F060FC00281CD1F2
:10CB60000F4B201C0093311C05AA0A9B04F0F4F91A
:10CB7000002812D10B4B201C0093311C05AA0B9BE3
:10CB800004F0EAF9002808D1059B09309B1B5E1EC2
:10CB9000B3415B42184000E00E2006B070BDC046B5
:10CBA000D5D30100F9D80100F0B5474680B41F1C69
:10CBB0000023051C0E1C141C84B0039313687F20F3
:10CBC0009846291C321C231C03F08EFB002812D12E
:10CBD000002D10D10E30002F0DD02368381C039388
:10CBE000074B311C0093424603AB04F09BF900282D
:10CBF00001D1039B236004B004BC9046F0BDC04645
:10CC000019D8010038B51D680924521B0F2A01D814
:10CC1000201C38BD1C1C0B1C1022011C581908F0CC
:10CC2000E2FE2368103323600024F1E738B515686D
:10CC30000924491B0F2901D8201C38BD141C411997
:10CC40001022181C08F0CFFE236810332360002444
:10CC5000F2E7C04638B51D680924521B062A01D8E0
:10CC6000201C38BD1C1C031C02784A552268501C2D
:10CC7000206006220818591C08F0B5FE2368063308
:10CC800023600024ECE7C04638B515680924491B29
:10CC9000062901D8201C38BD141C425D1A70226878
:10CCA0000133511C216006224118181C08F09BFE1C
:10CCB0002368063323600024ECE7C04638B51D68BE
:10CCC0000924521B0F2A01D8201C38BD1C1C0B1C28
:10CCD0001022011C581908F086FE236810332360C7
:10CCE0000024F1E738B515680924491B0F2901D83C
:10CCF000201C38BD141C41191022181C08F073FEAA
:10CD00002368103323600024F2E7C04638B51D685D
:10CD10000924521B3F2A01D8201C38BD1C1C0B1CA7
:10CD20004022011C581908F05EFE2368403323603E
:10CD30000024F1E738B515680924491B3F2901D8BB
:10CD4000201C38BD141C41194022181C08F04BFE51
:10CD50002368403323600024F2E7C046F0B54F4615
:10CD60004646C0B40E2583B000280CD0002A0AD055
:10CD70001C1C0433161C0F1C804603F04FFB237948
:10CD8000082B06D90925281C03B00CBC90469946EF
:10CD9000F0BD002340460093391C231C321C04F0D4
:10CDA000DBF82379002B11D01D4B00259946226812
:10CDB000AB0094464A46634400924046391C321CFC
:10CDC00004F0CAF8237901359D42F0D3231C404674
:10CDD0000C33391C321C03F021FB237B082BD1D8E8
:10CDE00000230093231C40460833391C321C04F0F6
:10CDF000B3F8237B002B11D00A4B00259946A2687B
:10CE0000AB0094464A46634400924046391C321CAB
:10CE100004F0A2F8237B01359D42F0D3051CB2E754
:10CE200089CC01002DCC0100F0B54746041C80B42C
:10CE30000E20002906D0002B04D01868151A102DDA
:10CE400003D8092004BC9046F0BD1D1C171C0E1C05
:10CE500008181022211C08F0C6FD02222968103192
:10CE60002960237C1A40101C9A0892000243201C5F
:10CE7000DB07DB0F134373542B683A1C01332B6021
:10CE80001230311C2B1C03F087FA804628683A1AAE
:10CE9000072AD6D9211C30181431082208F0A3FD26
:10CEA0002B68404608332B60CCE7C046F0B54746B8
:10CEB00080B4002909D0002B07D01F68D41B0F2C89
:10CEC00005D8092004BC9046F0BD0E20FAE7804644
:10CED0001C1C161CC81910220D1C414608F083FDAD
:10CEE000236810332360F21A062AEAD942464146E3
:10CEF000127C1131EA5423680622581C206028183D
:10CF000008F071FD2368002006332360DAE7C0468D
:10CF1000F0B5474680B4002809D0002A07D015682C
:10CF20004C1B0F2C05D8092004BC9046F0BD0E20E8
:10CF3000FAE78846141C41191022061C181C1F1CF5
:10CF400008F051FD4246236810332360D11A0629A8
:10CF5000E9D9381CF35C11303B7423680622591C54
:10CF60002160711808F03FFD23680020063323601C
:10CF7000DAE7C046F8B5051C0E20002D06D0002AC1
:10CF800004D010680C1A0F2C01D80920F8BD141C0D
:10CF90000E1C10222918181C1F1C08F024FD2368E1
:10CFA000103323609E42F0D00122E95C1140081C3E
:10CFB000397C9143014339742368281CEB5C5B087E
:10CFC00013405A00CBB202218B4313433B742368B6
:10CFD0000131EB5C9B089A003B7C0B4013433B7494
:10CFE0002368311C013323603B1C221C123303F0E5
:10CFF000E5F90028CAD123680930F11A0729C5D9F3
:10D00000381CE9181430082208F0EDFC23680020D1
:10D0100008332360BAE7C046F0B5474680B41568C8
:10D020004C1B0F2C03D8092004BC9046F0BD804651
:10D030000C1C291C161C4144181C10221F1C08F033
:10D04000D2FC3168103131608C42ECD04346012271
:10D05000595C1140081C397C914301433974316893
:10D0600000205B5C02215B0813405A003B7C8B4331
:10D0700013433B744346326801319B5C9B089A0022
:10D080003B7C0B4013433B74336801333360CBE785
:10D09000F0B51C6883B0141B052C02D8092003B01E
:10D0A000F0BD1D1C141C0F1C061C03F0A9F9002860
:10D0B000F5D16B460422D81D7378391C1A409B07A2
:10D0C0009B0F13430370221C2B1C03F099F90028BB
:10D0D000E5D12B689C469C42E0D00623B07808221C
:10D0E000C1070340C90F19430B1C0240134362469A
:10D0F000BB542B6801332B609C42CFD00620011C0F
:10D10000F278D0071140C00F084308211140021CDB
:10D110000A43FA542B6801332B60002F44D00920B6
:10D120009C42BCD03279D207D20FFA542B683179A5
:10D13000FA1802230B4011780B4313702B683179D6
:10D14000FA1804230B4011780B4313702B683179C4
:10D15000FA1808230B4011780B4313702B68013326
:10D160002B609C429AD072790020D207D20FFA54D9
:10D170002B687179FA1802230B4011780B43137056
:10D180002B687179FA1804230B4011780B43137044
:10D190002B687279F918082313400A7813430B702F
:10D1A0002B6801332B607AE70E2078E730B51468DE
:10D1B00083B009258C4213D01C1C6B46DD1D2B1C33
:10D1C00003F03AF90F20031C2A7825781340854391
:10D1D000120911012A1C00251A4302400A43227039
:10D1E000281C03B030BDC046F0B583B0041C1D1C24
:10D1F0006B46161CD81D23780F1C1A091B07120139
:10D200001B0F13430370321C2B1C03F0F9F800288A
:10D2100005D1601C391C321C2B1C03F0F1F803B043
:10D22000F0BDC046F0B583B0041C1D1C6B46161C37
:10D23000D81D23780F1C1A091B0712011B0F13435B
:10D240000370321C2B1C03F0DBF8002805D1601C96
:10D25000391C321C2B1C03F0D3F803B0F0BDC046C0
:10D26000F0B5474680B41C6882B0151B062D04D863
:10D27000092002B004BC9046F0BD1E1C8046037815
:10D28000151C0B5533680F1C581C43463060062292
:10D290000818591C08F0A7FB4046336808300633CD
:10D2A0003360391C331C2A1C03F076F8041C3068E8
:10D2B0002B1A072BDCD9414638180A31082208F00E
:10D2C00092FB3368201C08333360002CD1D16B46AD
:10D2D000D81D434606229B7C391C1A40DB07DB0F16
:10D2E000134303702A1C331C03F08AF8C1E7C046BD
:10D2F000F0B5474680B482B000246D46EC711C68DE
:10D30000151B062D04D8092002B004BC9046F0BDC0
:10D310001E1C80460378151C0B553368062201330A
:10D32000C818336043460F1C591C08F05CFB336877
:10D3300006333360EA1A062AE5D942464146D279D5
:10D340000831FA5433680622581C3060381808F047
:10D350004AFB404633680E3006333360391C2A1CC2
:10D36000331C03F04DF80028CED14346DB7B391C3B
:10D370005A08DB075200DB0F13436A46D371D01DF6
:10D38000331C2A1C03F03CF80028BDD14046391C50
:10D3900010302A1C331C02F0FFFF0028B4D1404695
:10D3A000391C12302A1C331C02F0F6FF0028ABD1C6
:10D3B0004046391C14302A1C331C02F0EDFF0028B3
:10D3C000A2D14046391C2A1C331C163002F0E4FF5F
:10D3D0009AE7C046F0B55F4656464D464446F0B41F
:10D3E00083B01E1C6B460733051C0F1C141C03F076
:10D3F00015F8002806D003B03CBC90469946A246DA
:10D40000AB46F0BD0122904631786B4691438C4685
:10D410004146DB79101C5A080A4052009146624688
:10D42000184010434246013188438B469908114009
:10D430004A46024304208243944642468246D80824
:10D4400010406246890011430822C0009143014305
:10D450007020914668321A40814311437F22DB09D4
:10D46000DB010A401A433270731C281C391C221C31
:10D4700002F0D4FF0028BED1B31C281C391C221C8A
:10D4800002F0CCFF0028B6D1002D60D0002C5ED079
:10D49000236809309F42AED042464146EB5C1A40B9
:10D4A000F3788B431343F3702368EB5C5B080B400A
:10D4B00059465A00F3788B43134342465146F37062
:10D4C0002368EB5C9B0813409A00F3788B4313436B
:10D4D00042464946F3702368EB5CDB081340DA00F0
:10D4E000F3788B431343F3702368013323609F4227
:10D4F00000D180E742464146EB5C00201A40337978
:10D500008B43134333712368EB5C5B080B40594634
:10D510005A0033798B431343424651463371236893
:10D52000EB5C9B0813409A0033798B4313434246CC
:10D53000494633712368EB5CDB081340DA0033792A
:10D540008B431343337123680133236053E70E2069
:10D5500051E7C046F0B583B0061C1C1C6B46171C77
:10D560000622D81D33780D1C1A40111CDA07D20F81
:10D570000A43082119400A4370211940DB090A4374
:10D58000DB0113430370291C3A1C231C02F038FFF3
:10D59000002801D003B0F0BD701C291C3A1C231CCC
:10D5A00002F02EFF0028F5D1B01C291C3A1C231CC8
:10D5B00002F026FF0028EDD1002D48D0002C46D0E7
:10D5C000226809309742E5D0F378DB07DB0FAB54D4
:10D5D0002368F178EA1802230B4011780B4313708B
:10D5E0002368F178EA1804230B4011780B43137079
:10D5F0002368F178EA1808230B4011780B43137065
:10D600002368013323609F42C4D032790020D207BF
:10D61000D20FEA5423683179EA1802230B401178BB
:10D620000B43137023683179EA1804230B401178F7
:10D630000B431370236832799C46082365441340DA
:10D640002A7813432B70236801332360A2E70E204E
:10D65000A0E7C046F8B5041C0F1C161C1D1C02F0E8
:10D660009BFE002800D0F8BDA01C391C321C2B1CCE
:10D6700002F092FE0028F6D1201D391C321C2B1C12
:10D6800002F08AFE0028EED1A01D391C321C2B1C92
:10D6900002F082FEE7E7C046F8B5041C0F1C161C1A
:10D6A0001D1C02F079FE002800D0F8BDA01C391C1A
:10D6B000321C2B1C02F070FE0028F6D1201D391CF4
:10D6C000321C2B1C02F068FE0028EED1A01D391C74
:10D6D000321C2B1C02F060FEE7E7C046F8B5146868
:10D6E00002348C4201D90920F8BD151C1F1C0C1CEA
:10D6F000061C02F075FE2B6802339C42F3D3BB1C60
:10D70000301C211C2A1C02F06BFE2B6802339C4249
:10D71000E9D33B1D301C211C2A1C02F061FE2B6842
:10D7200002339C42DFD3301CBB1D211C2A1C02F09B
:10D7300057FE0020D8E7C04608B502F061FE08BDDC
:10D74000F8B5071C0C1C151C1E1C02F037FE002827
:10D7500004D129680930641A072C00D8F8BDB01C20
:10D760007918082208F03FF92B68002008332B6055
:10D77000F4E7C046F0B5474680B4051C82B00028E7
:10D7800009D0002A07D0176809208F4205D102B0BE
:10D7900004BC9046F0BD0E20F9E7141C0122884617
:10D7A000E95D1E1C1140081C197891430143197052
:10D7B0002368281CEB5C5B0813405A00CBB20221A3
:10D7C0008B43134333702368124A0133236041466D
:10D7D0000092331D221C03F0BFFB0028D7D1331C5D
:10D7E000281C4146221C083302F0E8FD0028CED157
:10D7F000331C281C4146221C0A3302F0DFFD00289E
:10D80000C5D1331C281C0C334146221C02F0D6FD26
:10D81000BDE7C0465DCD0100F0B55F4656464D46BA
:10D820004446F0B4071C83B00E2000290DD0002B15
:10D830000BD01D1C2C4B161C0093984638682B1CD3
:10D840000C1C03F06FFB002806D003B03CBC9046D4
:10D850009946A246AB46F0BD244B211C0093994645
:10D860007868321C2B1C03F05DFB0028EDD1204BA7
:10D87000211C00939A46B868321C2B1C03F052FB03
:10D880000028E2D11B4B211C00939B46F868321CF8
:10D890002B1C03F047FB0028D7D14346009338697F
:10D8A000211C321C2B1C03F03DFB0028CDD14B4624
:10D8B00000937869211C321C2B1C03F033FB0028D9
:10D8C000C3D153460093B869211C321C2B1C03F0B2
:10D8D00029FB0028B9D15B46F869211C0093321C52
:10D8E0002B1C03F01FFBB0E729CE0100ADCE0100D9
:10D8F000BDCC01000DCD0100F0B544465F46564653
:10D900004D46F0B4041C83B00E20002C0DD0002A2C
:10D910000BD01E1C2F4B201C98460093331C151C4B
:10D920000F1C03F019FB002806D003B03CBC904646
:10D930009946A246AB46F0BD274A331D9146009258
:10D94000201C391C2A1C03F007FB0028EDD1234BB7
:10D95000201C9A460093331C391C2A1C083303F000
:10D96000FBFA0028E1D11E4B201C9B460093331C80
:10D97000391C2A1C0C3303F0EFFA0028D5D143469A
:10D980000093331C201C391C2A1C103303F0E4FACA
:10D990000028CAD14B460093331C201C391C2A1C7A
:10D9A000143303F0D9FA0028BFD153460093331C37
:10D9B000201C391C2A1C183303F0CEFA0028B4D1DD
:10D9C0005A46331C00921C33201C391C2A1C03F0BD
:10D9D000C3FAAAE775CF010011CF0100E5CC010021
:10D9E00035CD010070B5041C002915D0002B13D0D3
:10D9F0001D68092095420ED0062226780138F407CA
:10DA00003240E40F1443221C3040024300204A55A8
:10DA10001A6801321A6070BD0E20FCE7F8B5071CC9
:10DA20000E2000290ED0002B0CD0381C1C1C161CFC
:10DA30000D1C02F0B1FC002804D121680930721AD3
:10DA4000042A00D8F8BD68180522B91C07F0CBFFDE
:10DA50002368002005332360F4E7C046F8B5041CB2
:10DA60000E20002C0ED0002A0CD0201C1E1C171CCF
:10DA70000D1C02F0A3FC002804D13B680930E91A10
:10DA8000042900D8F8BDE118B01C052207F0ABFF4F
:10DA90003B68002005333B60F4E7C046F0B5051C49
:10DAA00083B00E20002909D0002B07D0281C1E1C93
:10DAB000171C0C1C02F070FC002801D003B0F0BD54
:10DAC000A81C211C3A1C331C02F066FC0028F5D16E
:10DAD000044B68680093211C3A1C331C03F022FAA3
:10DAE000ECE7C04699030200F0B5041C83B00E2099
:10DAF000002C09D0002A07D0201C1F1C151C0E1C4E
:10DB000002F05CFC002801D003B0F0BDBB1C201C5F
:10DB1000311C2A1C02F052FC0028F5D1044A3B1D9E
:10DB20000092201C311C2A1C03F016FAECE7C046B8
:10DB3000BD03020030B5051C83B00E20002909D0BA
:10DB4000002B07D01C1C2868131C00940A1C0621FB
:10DB500002F0ECFD03B030BD10B5041C82B00E2005
:10DB6000002C07D0002A05D0201C06240094019424
:10DB700002F0FEFD02B010BDF0B5051C83B00E2012
:10DB800000290CD0002B0AD01E1C094B28680093DA
:10DB9000331C171C0C1C03F0C5F9002801D003B07E
:10DBA000F0BD281D211C3A1C331C02F0F5FBF6E7E2
:10DBB00005CC0100F0B5041C83B00E20002C0CD065
:10DBC000002A0AD01F1C094B201C00933B1C161C6A
:10DBD0000D1C03F0C1F9002801D003B0F0BD3B1DBE
:10DBE000201C291C321C02F0E9FBF6E72DCC0100B9
:10DBF00010B5041C82B00E20002909D0002B07D0DC
:10DC0000684624780730E407E40F047002F0F8FB5C
:10DC100002B010BD30B5041C83B00E20002C12D011
:10DC2000002A10D01D1C6B46201C073302F0F6FBA7
:10DC3000002808D16B460121DB790B401A1C2B7898
:10DC40008B4313432B7003B030BDC04610B5041C8A
:10DC500082B00E20002909D0002B07D06846247816
:10DC60000730E407E40F047002F0CAFB02B010BDF5
:10DC700030B5041C83B00E20002C14D0002A12D022
:10DC80001D1C201C00236C46E3716B46073302F019
:10DC9000C5FB002807D10121E3790B401A1C2B7822
:10DCA0008B4313432B7003B030BDC04670B5041CCA
:10DCB00082B00E20002C1FD0002A1DD01D1C6B46E8
:10DCC000201C073302F0AAFB002815D101216B4666
:10DCD0000E1CDA792C7816408C4334430226530804
:10DCE00092080A40B4430B409100221C5B001A4387
:10DCF00004239A430A432A7002B070BDF8B5041C8D
:10DD00000E20002C09D0002A07D0201C1F1C151C37
:10DD10000E1C02F083FB002800D0F8BD7B1C201CE9
:10DD2000311C2A1C02F07AFB0028F6D1BB1C201CF7
:10DD3000311C2A1C02F072FBEFE7C04638B51568AB
:10DD40000924491B1F2901D8201C38BD141C411966
:10DD50002022181C07F047FE23682033236000248C
:10DD6000F2E7C046F0B5474680B4071C82B00E20EB
:10DD7000002906D0002B04D01E680538941B062C01
:10DD800003D802B004BC9046F0BD1C1C90460D1C8C
:10DD90003B7806228B552368581C20600818791C94
:10DDA00007F021FE2368F81D06332360102100943C
:10DDB0002A1C434602F0BAFC0028E2D1381C009429
:10DDC00010212A1C4346173002F0B0FCD9E7C046A8
:10DDD000F0B54F464646C0B4051C85B00E20002D58
:10DDE00006D0002A04D0166805388C1B062C04D8EF
:10DDF00005B00CBC90469946F0BD1F1C141CAB5DD1
:10DE000089463B701368781C591C116069180622FA
:10DE100007F0E9FD2368281C06332360FB1D0393EC
:10DE200010234946984600930193221C03AB02F04D
:10DE30009FFC0028DCD13B1C173303934346281C6E
:10DE4000009301934946221C03AB02F091FCCFE7FB
:10DE500030B5041C83B00E20002C12D0002A10D044
:10DE6000131C0122201C019201AA0D1C02F0D6FAFB
:10DE7000002806D1019B0930591B4D1EA94149427A
:10DE8000084003B030BDC04638B5051C0C1C131C3F
:10DE9000291C221C772002F027FA38BDF0B5041C9B
:10DEA00085B00E20002C18D0002A16D0002B14D0DC
:10DEB0001D68002D11D01D1C002303930B33161C6D
:10DEC000201C03AA6B440F1C02F0A8FA002804D1FE
:10DED0006B46DB7A0730942B01D005B0F0BD201CD7
:10DEE000391C03AA331C02F069FA0028F5D1094B4A
:10DEF000201C0093391C03AA2B1C03F02DF80028CA
:10DF0000EBD1039B0930FB1A5F1EBB415B421840FB
:10DF1000E3E7C046C9EA010038B5051C0C1C131C18
:10DF2000291C221C942002F0DFF938BD70B5041CB6
:10DF300086B0002811D0002A0FD0002B0DD0186811
:10DF400000280AD00A98002807D00068039000280B
:10DF500003D0022904D8092000E00E2006B070BDCD
:10DF600025780B20952DF9D11D1C131C01220E1CA8
:10DF70000592201C05AA02F033FA0C4B201C0093DA
:10DF8000311C05AA2B1C02F0E7FF0028E6D1084B44
:10DF9000201C0093311C05AA0A9B02F0DDFF00281B
:10DFA000DCD1059B9E42D9D00920D7E7A908020001
:10DFB000C9EA010038B5051C0C1C131C291C221CC5
:10DFC000952002F091F938BD70B584B0002810D0CA
:10DFD000002A0ED0002B0CD01C68002C09D0089C05
:10DFE000002C06D0012403944C1E042C04D80920D4
:10DFF00000E00E2004B070BD1D1C0E1C041C131C80
:10E0000003AA02F0EDF9089B201C0093311C03AA1F
:10E010002B1C02F0C1FA0028ECD1039B9E42E9D0F0
:10E020000920E7E7131C002230B5051C0C1C85B045
:10E03000039203AA0092291C221C972002F052FB93
:10E0400005B030BD70B5012482B0019400280AD01B
:10E05000002A08D0002B06D01C68002C03D003290E
:10E0600004D8092000E00E2002B070BD041C1D1C65
:10E07000131C01AA0E1C02F0B3F9019BE25C591CAF
:10E080000191002A17D0012A17D105339E42E8D307
:10E09000201C311C01AA2B6802F0A2F92B68311C4C
:10E0A0000233201C01AA02F09BF9019900208E4244
:10E0B000DAD00920D8E72A60F8E70B20D4E7C04679
:10E0C00038B5051C0C1C131C291C221C922002F0C4
:10E0D0000BF938BD70B5012482B0019400280AD034
:10E0E000002A08D0002B06D01C68002C03D003297E
:10E0F00004D8092000E00E2002B070BD041C1D1CD5
:10E10000131C01AA0E1C02F06BF9019BE25C591C66
:10E110000191002A17D0012A17D105339E42E8D376
:10E12000201C311C01AA2B6802F05AF92B68311C03
:10E130000233201C01AA02F053F9019900208E42FB
:10E14000DAD00920D8E72A60F8E70B20D4E7C046E8
:10E1500038B5051C0C1C131C291C221C932002F032
:10E16000C3F838BDF0B54746002180B482B00191B4
:10E1700069468C1C3421051C21800E20002D0FD0F7
:10E18000002A0DD0002B0BD01F1C1B68161C9846B4
:10E19000111C201C1A1C01AB02F0FEF8002803D051
:10E1A00002B004BC9046F0BD281D311C424601ABB4
:10E1B00002F0F2F80028F3D1A81D311C424601AB51
:10E1C00002F0EAF80028EBD1281C311C0830424646
:10E1D00001AB02F0E1F80028E2D1281C311C0C3020
:10E1E000424601AB00F000FD0028D9D1019B3B6005
:10E1F000D6E7C046F0B557464E464546E0B400283F
:10E2000008D0002A06D0002B04D01968092907D8A5
:10E21000092000E00E201CBC90469946A246F0BDA5
:10E22000322111700021517081889170090AD170DA
:10E23000C1881171090A517101899171090AD1715D
:10E2400081891172090A517281891C688A46C90044
:10E2500051440A31A142DBD85146002951D0051C56
:10E2600000270E350A320824A14629880626117097
:10E27000090A5170A9789170B900C919490041186B
:10E28000894449468C7A01372640B0464146E60724
:10E29000F60F0E430821B0460E1C2640B4464646F3
:10E2A00061460E431021B0460E1C2640B446464639
:10E2B00061460E432021B0460E1C2640B446464619
:10E2C00061460E4340210C4049463443D470C97A1C
:10E2D000C907C90F1171E9885171090A917129891A
:10E2E0000A35D171090A1172B9B209328A45BAD810
:10E2F0005646013EB6B2F200961913361E60002053
:10E3000089E70A26FAE7C046F0B5041C83B00E2060
:10E31000002C10D0002A0ED0002B0CD01E1C002385
:10E320003768151C0193111C201C3A1C01AB02F02C
:10E3300033F8002801D003B0F0BD201D291C3A1C81
:10E3400001AB02F029F80028F5D1A01D291C3A1CC8
:10E3500001AB02F021F80028EDD1201C291C083067
:10E360003A1C01AB02F018F80028E4D1201C291C4B
:10E370000C303A1C01AB00F04DFB0028DBD1019BB7
:10E380003360D8E7F0B5041C83B00E20002C13D006
:10E39000002A11D0002B0FD01E1C002301936B46C6
:10E3A000981C37233768151C0380111C01AB3A1CDD
:10E3B00001F0F2FF002801D003B0F0BD201D291CA0
:10E3C0003A1C01AB01F0E8FF0028F5D1A01D291C83
:10E3D0003A1C01AB01F0E0FF0028EDD1201C291C04
:10E3E00008303A1C01AB01F0D7FF0028E4D1201C13
:10E3F000291C0C303A1C01AB00F04AFB0028DBD191
:10E40000019B3360D8E7C04630B5002808D0002A09
:10E4100006D0002B04D01968092903D8092000E090
:10E420000E2030BD33211170002151708188917010
:10E43000090AD170C1881171090A5171018991715C
:10E44000090AD17181891172090A517285891C6882
:10E45000A90049190A31A142E0D8002D1DD0011CA4
:10E46000013DADB26C006419640014340E310A32FF
:10E4700000190C881470240A54704C889470240A73
:10E48000D4700C790631147105328142F1D1AA00A1
:10E4900055190F351D600020C3E70A25FAE7C0466D
:10E4A00070B5002808D0002A06D0002B04D01968C7
:10E4B0000C2903D8092000E00E2070BD392111700D
:10E4C0000021517081889170090AD170C188117141
:10E4D000090A517101899171090AD17181891172F9
:10E4E000090A5172817B9172018AD172090A1173F2
:10E4F000058A1C68291C0D31A142DBD81E1C041C96
:10E500000D23002D02D133600020D6E7211C0D32EF
:10E51000101C12312A1C07F066FA238A0D33F2E729
:10E5200070B5002808D0002A06D0002B04D0196846
:10E53000092903D8092000E00E2070BD3021117098
:10E540000021517081889170090AD170C1881171C0
:10E55000090A517101899171090AD1718189117278
:10E56000090A517285891C68E900491B0A31A142D8
:10E57000E0D8002D1FD0013DADB2EE00341C011CCF
:10E5800016340E310A3200190C881470240A5470A3
:10E590008C7894708C88D470240A1471CC880831DB
:10E5A0005471240A947107328142EDD1751B1135E3
:10E5B0001D600020C1E70A25FAE7C04670B50028B3
:10E5C00008D0002A06D0002B04D019680D2903D8E2
:10E5D000092000E00E2070BD36211170002151701D
:10E5E00081889170090AD170C1881171090A51712D
:10E5F00001899171090AD17181891172090A5172D7
:10E60000C1899172090AD172018A1173090A517381
:10E61000058A1C68291C0E31A142D9D81E1C041C75
:10E620000E23002D02D133600020D4E7211C0E32CE
:10E63000101C12312A1C07F0D6F9238A0E33F2E798
:10E64000F0B54746002180B482B0019169468C1C28
:10E650003121051C21800E20002D0FD0002A0DD065
:10E66000002B0BD01F1C1B68161C9846111C201C6D
:10E670001A1C01AB01F090FE002803D002B004BCCC
:10E680009046F0BD281D311C424601AB01F084FECE
:10E690000028F3D1A81D311C424601AB01F07CFEDD
:10E6A0000028EBD1281C311C0830424601AB01F098
:10E6B00073FE0028E2D1281C311C0C30424601AB0D
:10E6C00000F018FA0028D9D1019B3B60D6E7C0467C
:10E6D00010B5011E15D0002A13D0002B11D01C68D4
:10E6E0000920042C0ED93130107000205070888819
:10E6F0009070000AD070097B0020117105221A6009
:10E7000000E00E2010BDC04670B5002808D0002AD9
:10E7100006D0002B04D019680E2903D8092000E088
:10E720000E2070BD382111700021517081889170C8
:10E73000090AD170C1881171090A51710189917159
:10E74000090AD17181891172090A5172817B917212
:10E75000018AD172090A1173418A5173090A9173AE
:10E76000458A1C68291C0F31A142D7D81E1C041CE5
:10E770000F23002D02D133600020D2E7211C0F327D
:10E78000101C14312A1C07F02EF9638A0F33F2E7AC
:10E7900070B5041C82B00E20002C0ED0002A0CD0C4
:10E7A000002B0AD01E1C131C0122201C019201AA5E
:10E7B0000D1C01F003FE002801D002B070BD201C2A
:10E7C000291C01AA331C01F0F9FD0028F5D1019B99
:10E7D0000930591B4D1EA94149420840EDE7C0468A
:10E7E00038B5051C0C1C131C291C221C992001F097
:10E7F0007BFD38BD70B5012484B0039400280ED091
:10E80000002A0CD0002B0AD0089C002C07D02468CA
:10E810000194002C03D0052904D8092000E00E2023
:10E8200004B070BD041C1D1C0E1C131C03AA01F0B7
:10E83000D7FD311C03AA2B1C201C01F0D1FD039B2A
:10E84000E25C591C0391002A1AD0012A1BD104331F
:10E850009E42E2D3089B201C1B68311C03AA019333
:10E8600001F0BEFD089B311C1B68201C023303AA6B
:10E8700001F0E2FD039900208E42D1D00920CFE7BC
:10E88000089B1A60F7E70B20CAE7C04638B5051C9D
:10E890000C1C131C291C221C902001F025FD38BDE6
:10E8A00070B5041C82B00E20002C11D0002A0FD0AD
:10E8B000002B0DD0069D002D0AD01E1C131C01221A
:10E8C000201C019201AA0D1C01F078FD002801D046
:10E8D00002B070BD201C291C01AA331C01F06EFD82
:10E8E0000028F5D1201C291C01AA069B01F066FD19
:10E8F0000028EDD1019B0930EB1A191C4B1E9941E0
:10E900004B421840E4E7C04638B5051C0C1C131CEC
:10E91000291C221C962001F0E7FC38BD70B50124AB
:10E9200082B0019400280AD0002A08D0002B06D01B
:10E930001C68002C03D0032904D8092000E00E2015
:10E9400002B070BD041C1D1C131C01AA0E1C01F09A
:10E9500047FD019BE25C591C0191002A17D0012A56
:10E9600017D105339E42E8D3201C311C01AA2B6825
:10E9700001F036FD2B68311C0233201C01AA01F086
:10E980002FFD019900208E42DAD00920D8E72A60B5
:10E99000F8E70B20D4E7C04638B5051C0C1C131C47
:10E9A000291C221C912001F09FFC38BDF8B5041CE5
:10E9B0000E20002C0BD0002909D0002B07D0201CE2
:10E9C0001E1C171C0D1C01F0E7FC002800D0F8BD30
:10E9D000A01C291C3A1C331C01F056FFF7E7C04667
:10E9E000F8B5041C0E20002C0BD0002909D0002BF8
:10E9F00007D0201C1E1C171C0D1C01F0CDFC00288C
:10EA000000D0F8BDA01C291C3A1C331C01F062FF89
:10EA1000F7E7C046F8B54F464646C0B4051C8946E0
:10EA200090461C1C01F0B8FC002803D00CBC90469A
:10EA30009946F8BDA81C49464246231C01F0ACFC8F
:10EA40000028F3D12B882E1D0027002B0ED11DE0AE
:10EA50007168484406F0C7FF22686B889446634497
:10EA600023602B8801370836BB420FD9301C49463A
:10EA70004246231C01F090FC0028D7D14346206871
:10EA80006A881B1A9A42E3D90920CFE70020CDE714
:10EA9000F8B5061C0F1C141C1D1C01F07DFC002881
:10EAA00005D12B683288E41A0930A24200D9F8BD9A
:10EAB000F818B11C06F097FF2A683388944663441F
:10EAC0002B600020F3E7C046F8B5146809250C1B3D
:10EAD000032C01D8281CF8BD0D1C1E1C141C071C7F
:10EAE00001F07EFC291CB31C381C221C01F078FCB0
:10EAF0000025EFE7F0B557464E464546E0B481465F
:10EB00000E1C171C984601F047FC824600280ED1C7
:10EB10004B469C1C1B880025002B08D0201C311C58
:10EB20003A1C434601F038FC002806D08246504685
:10EB30001CBC90469946A246F0BDA01C311C3A1C54
:10EB4000434601F0A1FE0028F0D1A01D311C3A1C63
:10EB5000434601F021FC0028E8D1201C311C08307C
:10EB60003A1C434601F018FC0028DFD14B461B88B5
:10EB700001350A34AB42D1D8D9E7C046F0B5041C00
:10EB800083B00E20002C0BD0002A09D0002B07D018
:10EB9000201C1E1C151C0F1C01F040FC002801D07D
:10EBA00003B0F0BD731C201C391C2A1C01F036FC7C
:10EBB0000028F5D1B31C201C391C2A1C01F0FEFBD7
:10EBC0000028EDD1331D201C391C2A1C01F0F6FB56
:10EBD0000028E5D1331C063608330096201C391C6A
:10EBE0002A1C01F09BFCDBE7F0B557464E46454634
:10EBF000041CE0B40E20002C0BD0002909D0002BFF
:10EC000007D0201C1E1C171C0D1C01F0C5FB002882
:10EC100004D01CBC90469946A246F0BDA01C291CFD
:10EC20003A1C331C01F0ECFB0028F2D1A378012B35
:10EC30001AD0104B9A46221D9046002223889146F6
:10EC4000002B09D113E001239C461133E1449C467B
:10EC50002388E0444B450AD94046291C3A1C331C02
:10EC6000D0470028EFD0D4E7034B9A46E3E70020D3
:10EC7000CFE7C046E1E90100ADE90100F0B5041CB1
:10EC800085B00E20002C18D0002A16D0002B14D0EE
:10EC90001D68002D11D01D1C002303930B33161C7F
:10ECA000201C03AA6B440F1C01F0B8FB002804D100
:10ECB0006B46DB7A0730982B01D005B0F0BD201CE5
:10ECC000391C03AA331C01F079FB0028F5D1094B4C
:10ECD000201C0093391C03AA2B1C02F03DF90028CC
:10ECE000EBD1039B0930FB1A5F1EBB415B4218400E
:10ECF000E3E7C0467DEB010038B5051C0C1C131C76
:10ED0000291C221C982001F0EFFA38BD70B586B09E
:10ED100000281CD0002A1AD0002B18D00A9C002CE6
:10ED200015D00B9C002C12D01C68002C0FD00A9C14
:10ED300024680394002C0AD00B9C24680394002CB4
:10ED400005D001240594022904D8092000E00E20F2
:10ED500006B070BD1D1C0E1C041C131C05AA01F07E
:10ED60003FFB114B201C0093311C05AA2B1C02F009
:10ED7000F3F80028ECD10D4B201C0093311C05AAA0
:10ED80000A9B02F0E9F80028E2D10090311C201C17
:10ED900005AA0B9B02F0E0F80028D9D1059BB342ED
:10EDA000D6D00920D4E7C04619F5010079F6010054
:10EDB000F0B5474680B4061C82B0002909D0002A6D
:10EDC00007D017680920042F05D802B004BC90466C
:10EDD000F0BD0E20F9E7141C0D1C98469930311C2B
:10EDE0002A1C231C01F080FA0028EED1002EECD161
:10EDF000044B40460093291C3A1C231C02F092F855
:10EE0000E3E7C046EDF6010070B5041C86B00028AB
:10EE100011D0002A0FD0002B0DD0186800280AD07E
:10EE20000A98002807D000680390002803D003291F
:10EE300004D8092000E00E2006B070BD2578072018
:10EE4000A32DF9D11D1C131C01220E1C0592201CA0
:10EE500005AA01F0C5FA0C4B201C0093311C05AA31
:10EE60002B1C02F079F80028E6D10090311C201C00
:10EE700005AA0A9B02F070F80028DDD1059BB34279
:10EE8000DAD00920D8E7C04679F60100F0B5474648
:10EE900080B484B0141C6A46961D071C0D1E338076
:10EEA0000AD0002C08D023689846042B06D80920E5
:10EEB00004B004BC9046F0BD0E20F9E7A320391C35
:10EEC0002A1C231C01F010FA0028F1D1002FEFD1E9
:10EED0002368039302339845E9D3301C291C42462A
:10EEE00003AB01F059FA0028E2D1039B2360DFE76E
:10EEF00010B5011E17D0002A15D0002B13D01C68A6
:10EF00000920052C10D94A301070002050708888D4
:10EF10009070000AD070C98800201171090A5171DF
:10EF200006221A6000E00E2010BDC046F0B5011C9C
:10EF300085B00E20002A11D0002B0FD000290DD053
:10EF40001D1C00232F68141C0E1C0293081C02AB0E
:10EF5000111C3A1C01F020FA002801D005B0F0BDC8
:10EF6000301D211C3A1C02AB01F016FA0028F5D125
:10EF7000B01D211C3A1C02AB00F050FC0028EDD162
:10EF8000B379022B03D0029B00202B60E6E7B08808
:10EF900003A902F0EFF80528F5D04C23039A534358
:10EFA000064AD3185868198902AB0093221C2B68B3
:10EFB00001F086FA0028E6D0D0E7C046E0510020F4
:10EFC00010B5011E12D0002A10D0002B0ED01C68E4
:10EFD0000920032C0BD94B30107000205070898809
:10EFE0009170090AD17004221A6000E00E2010BD51
:10EFF00010B5011E15D0002A13D0002B11D01C68AB
:10F000000920042C0ED949301070002050708888D7
:10F010009070000AD07089790020117105221A6061
:10F0200000E00E2010BDC04610B5011E15D0002A0C
:10F0300013D0002B11D01C680920042C0ED94C30A1
:10F0400010700020507088889070000AD070897904
:10F050000020117105221A6000E00E2010BDC0468C
:10F06000F0B5041C87B00E20002C12D0002A10D05E
:10F07000002B0ED01D1C00232F68049368445033CE
:10F08000161C0380111C04AB3A1C01F085F9002802
:10F0900001D007B0F0BD201D311C3A1C04AB01F0BB
:10F0A0007BF90028F5D1A01D311C3A1C04AB00F0FF
:10F0B00069FB0028EDD1237B012B05D0062B03D063
:10F0C000049B00202B60E4E7A08805A902F052F819
:10F0D0000528F5D04C23059A5343064AD31858689F
:10F0E000198904AB0093321C2B6801F0E9F9002860
:10F0F000E6D0CEE7E051002070B5041C84B00028B3
:10F100000AD0002A08D0002B06D01868002803D0A7
:10F11000032904D8092000E00E2004B070BD257832
:10F120000720A62DF9D11D1C131C01220E1C0392D1
:10F13000201C03AA01F054F9074B201C0093311C3A
:10F1400003AA2B1C01F008FF0028E6D1039BB34261
:10F15000E3D00920E1E7C04631F70100F0B54746AA
:10F1600080B4051C84B00E20002910D0002A0ED0D7
:10F17000161C0C1C1F1C136898309846291C221C56
:10F18000331C01F0B1F8002801D1002D03D004B0E8
:10F1900004BC9046F0BD3368381C0393054B211C1A
:10F1A0000093424603AB01F0BDFE0028EFD1039B64
:10F1B0003360ECE79903020030B583B000280AD031
:10F1C000002A08D0002B06D0069C002C03D006296C
:10F1D00005D0092100E00E21081C03B030BD0478E1
:10F1E0000721A12CF8D11D1C131C0122041C019223
:10F1F000013901AA01F0F4F801AA2B1C201C0621F8
:10F2000001F0EEF8019B5A1CE35C002B01D106993A
:10F210000B600021062ADFD00921DDE7F0B54F465B
:10F220004646C0B485B0002923D0002A21D01F1C37
:10F230001368161C994600230D1C041C039303AB92
:10F2400098460093A120211C2A1C331C01F04AFA85
:10F2500000280FD1002C0DD1002F0AD0381C291CFA
:10F260004A46434601F098F8002803D1039B3360D7
:10F2700000E00E2005B00CBC90469946F0BDC0469B
:10F2800070B584B0002809D0002A07D00124039467
:10F290004C1E012C04D8092004B070BD0E20FBE7E1
:10F2A0001E1C0D1C041C131C03AA01F099F8074B2B
:10F2B000201C0093291C03AA331C01F04DFE0028DA
:10F2C000EAD1039BAB42E6D1E6E7C046A5F80100D0
:10F2D00038B5051C0C1C131C291C221CA82001F08D
:10F2E00003F838BD70B586B0002814D0002A12D0BB
:10F2F000002B10D01C68002C0DD00A9C002C0AD0CA
:10F3000024680394002C06D0012405944C1E022C82
:10F3100004D8092000E00E2006B070BD1D1C131C8F
:10F3200005AA0E1C041C01F079F80028F4D10C4B3E
:10F33000201C0093311C05AA2B1C01F00DFE002897
:10F34000EAD10090311C201C05AA0A9B01F004FEA2
:10F350000028E1D1059BB342DED00920DCE7C0469E
:10F36000A9080200F0B54F464646C0B485B0002952
:10F3700023D0002A21D01F1C1368161C9946002395
:10F380000D1C041C039303AB98460093A020211C82
:10F390002A1C331C01F0A6F900280FD1002C0DD136
:10F3A000002F0AD0381C291C4A46434600F0F4FFBF
:10F3B000002803D1039B336000E00E2005B00CBC95
:10F3C00090469946F0BDC04630B583B000280AD0BB
:10F3D000002A08D0002B06D0069C002C03D0072959
:10F3E00005D0092100E00E21081C03B030BD0478CF
:10F3F0000721A72CF8D11D1C131C0122041C01920B
:10F4000001AA00F0EDFF201C072101AA2B1C00F02F
:10F41000E7FF0721069B201C01AA00F0E1FF019BEA
:10F420000021072BE0D00921DEE7C04638B5051CD6
:10F430000C1C131C291C221CA72000F055FF38BDF2
:10F44000F8B5146809250C1B062C01D8281CF8BD3A
:10F450000D1C1F1C161C041C00F0EEFF291C7B1C3D
:10F46000201C321C00F0E8FF291CBB1C201C321C95
:10F4700000F0B6FF291C3B1D201C321C00F0DCFFF5
:10F48000291CBB1D201C321C00F0AAFF0025DDE753
:10F49000F0B5474680B482B0071C0D1C141C1E1C1E
:10F4A000FDF784FE002803D002B004BC9046F0BDF6
:10F4B000731C381C291C221CFDF778FE0028F3D190
:10F4C000236809309D42EFD007236B44291C221C7E
:10F4D0009846381C00F0B0FF0122B07843469043B4
:10F4E000051C06201B78111C1840041C281C194000
:10F4F00008430621884320430824D9081B09A04358
:10F50000134011401A01031CC9000B4310218B4307
:10F510001343B3700020C7E7F0B54E464546574643
:10F52000E0B4146882B081460D1B012D5BD9012621
:10F53000045D351C600830404000844602201F787E
:10F540002540B7433D438543A8468246474660462B
:10F55000384380460420844640466746B843804688
:10F56000E0083040C00084464046A5083540AD0064
:10F5700028430825A84380466046474638438046CE
:10F580001020844640466746B843804660093040B4
:10F59000400184464046250935402D010543202081
:10F5A0008543A846A4093440A50140466446044367
:10F5B000402084432C431C701068351C041C4C44B0
:10F5C0006478587825406408B04326407400061CCF
:10F5D00050462E43864326435E701068841C146098
:10F5E0000C1B012C06D8092002B01CBC9046994681
:10F5F000A246F0BD1C1C48460833151C0E1C00F02A
:10F60000EFFE221C0A320092231D4846311C2A1CA0
:10F6100000F084FF0028E7D1154B48460093231CD7
:10F62000311C2A1C0C3301F097FC0028DCD1114B53
:10F63000484698460093231C311C2A1C103301F0C5
:10F640008BFC0028D0D143460093231C4846311C34
:10F650002A1C143301F080FC0028C5D14246231C2B
:10F66000009218334846311C2A1C01F075FCBBE798
:10F6700041F4010091F40100F0B51E1C194B83B058
:10F680000093331C071C0D1C141C01F065FC0028A2
:10F6900001D003B0F0BD144A331D0092381C291C60
:10F6A000221C01F059FC0028F3D123680930EB1A21
:10F6B000032BEED9331C381C291C221C0A3300F002
:10F6C0008FFE331C381C291C221C0C3300F088FED2
:10F6D000331C083610330096381C291C221C00F0FD
:10F6E0001DFFD6E7A908020091F40100F8B5041C3B
:10F6F0000F1C161C1D1C00F04FFE002800D0F8BD8A
:10F70000A01C391C321C2B1C00F046FE0028F6D130
:10F71000201D391C321C2B1C00F03EFE0028EED1AF
:10F72000A01D391C321C2B1C00F036FEE7E7C0463A
:10F73000F0B5061C106883B00C1A0920042C01D8FF
:10F7400003B0F0BD1F1C151C0C1C301C00F048FE43
:10F75000BB1C301C211C2A1C00F06EFE301C2A1C15
:10F760003B1D211C00F03CFE3A1C08320E20002AF2
:10F77000E6D03B1C00920C33301C211C2A1C00F0EC
:10F780005FFFDDE7F0B583B0061C0F1C141C1D1CC9
:10F7900000F002FE002801D003B0F0BDB01C391CFF
:10F7A000221C2B1C01F070F80028F5D1B01D391C6B
:10F7B000221C2B1C00F024FE0028EDD1F01D391C6A
:10F7C000221C2B1C00F01CFE0028E5D1301C391C2B
:10F7D0000830221C2B1C00F0DFFD0028DCD16A461B
:10F7E0007389901DD380391C221C2B1C00F0D4FD82
:10F7F0000028D1D16B46DA882B680930E41AA2427E
:10F80000CAD8311CF8180C3106F0EDF82A686B469E
:10F810009446DB88002063442B60BDE7F8B54F4673
:10F8200046460E25C0B4002917D0002B15D000285D
:10F8300013D01E1C171C8846041C00F0E1FD051E99
:10F840000BD12378012B0FD0022B0BD1A01C4146EA
:10F850003A1C331CFFF796FF051C281C0CBC904675
:10F860009946F8BD0725F8E7A31C181C99464146A0
:10F870003A1C331C00F090FD051EEED1484641466F
:10F8800002303A1C331C00F0FFFF051EE5D1201C9E
:10F89000414608303A1C331C00F07EFD0028DCD0C5
:10F8A000DAE7C046F0B5454657464E46E0B415681F
:10F8B00084B009248D4206D1201C04B01CBC9046A3
:10F8C0009946A246F0BD9846161C0D1C071C00F078
:10F8D000B3FD43461B789946012B3ED00724022BEB
:10F8E000EAD13368EB1A012B01D80924E4E7434637
:10F8F0001C1D231C381C291C321C00F071FD3368B0
:10F900009D42F2D00F236B449946291C321C381CAF
:10F9100000F092FD4B4601211B780B401A1C434618
:10F920009B798B431343424693713368EB1A012B47
:10F93000DBD9231D381C291C321C00F051FD424626
:10F9400043460A3200920C33381C291C321C00F04A
:10F95000E5FD041EB0D10024AEE73368EB1A012B9D
:10F96000C3D943461C1D231C381C291C321C00F023
:10F9700037FD33689D42B8D00F236B449A46291C4B
:10F98000321C381C00F058FD53464A461B78494645
:10F990001A4043469B798B43134342469371336825
:10F9A000EB1A012BA1D9231D381C291C321C00F095
:10F9B00017FD424643460A3200920C33381C291C7C
:10F9C000321C00F0ABFD041E00D075E7002473E785
:10F9D000F0B583B0151C1C1C6A460023D3716B461E
:10F9E0002A1C0733071C0E1C00F018FD00280ED13E
:10F9F0006B460121DB79381C0B401A1C23788B43A2
:10FA000013432370311C231D2A1C00F0A5FC03B0F6
:10FA1000F0BDC046F0B583B0041C0E1C151C1F1CA5
:10FA200000F0BAFC002801D003B0F0BDA01C311CCE
:10FA30002A1C3B1C00F0B0FC0028F5D1606821882E
:10FA40000097321C2B1C00F071FEEDE7F0B5474625
:10FA50001C1C80B41B8882B09846231C071C0E1CFB
:10FA6000151C00F0ABFC002803D002B004BC90468B
:10FA7000F0BDA31C381C311C2A1C00F09FFC002880
:10FA8000F3D1424600922288231D0192381C311C7A
:10FA90002A1C00F06DFEE8E730B5041C83B0002896
:10FAA00008D0002B06D00698002803D0032904D8DC
:10FAB000092000E00E2003B030BD25780720AA2DD4
:10FAC000F9D1002AF6D007980028F3D0A0786578FD
:10FAD00000022843108004220192E278012A18D003
:10FAE000002206980260042005329142E0D3019280
:10FAF000225C002A00D11A60201C01AA079B0D1C61
:10FB000000F02AFC0028D6D1019BAB42D3D00920BB
:10FB1000D1E70529CCD9069A10680028CAD06279A5
:10FB2000257912022A430280019A901C0332DCE7F5
:10FB3000F0B5474680B4002908D0002A06D01768DF
:10FB4000042F05D8092004BC9046F0BD0E20FAE72A
:10FB5000141C0D1C80461E1CAA20231C41462A1C76
:10FB600000F0C2FB031EEED14346002BEBD1002E6A
:10FB7000ECD0069B002BE9D021688B1C9F42E1D37F
:10FB8000069A6818128803310270120A4270069AA7
:10FB900012888F42D6D30120E8548B1898469F4292
:10FBA000D0D36818311C05F01EFF434600202360A7
:10FBB000C9E7C046F0B5012483B00194002810D0F5
:10FBC000002A0ED0002B0CD01C68002C09D0089CF9
:10FBD000002C06D0099C002C03D0072904D809204A
:10FBE00000E00E2003B0F0BD041C1D1C131C01AA74
:10FBF0000E1C00F0F5FB019B5A1C0192E25C002AEE
:10FC000026D0012A2BD16B469F1C01AA3B1C201C2D
:10FC1000311C00F0E5FB089B3A881B889342DED339
:10FC2000089B01991A800B1D9B18B342D7D161180C
:10FC3000286805F0D8FE019A089B94461B88634407
:10FC40000193201C311C01AA099B00F085FBC9E728
:10FC500005332A60B342C2D1089B1A80F1E70B201A
:10FC6000C0E7C04638B5051C0C1C131C291C221CFF
:10FC7000A92000F039FB38BD70B5041C002084B009
:10FC80000390002C10D0002A0ED0002B0CD0089826
:10FC9000002809D00068002806D04068002803D05A
:10FCA000052904D8092000E00E2004B070BD257895
:10FCB0000720A52DF9D11D1C131C0122201C039225
:10FCC00003AA0E1C00F07AFB0028EED1201C311C88
:10FCD00003AA2B1C00F072FB0028E6D1039B5A1CE0
:10FCE000E35C0392012B03D00020089B1860DCE743
:10FCF000089B201C311C03AA1B6800F05FFB002836
:10FD0000D3D1089B201C1B68311C019303AA02332A
:10FD100000F054FB0028C8D1039B9E42C2D0E35C94
:10FD2000002BC2D1089B1B685860BEE7F0B5464661
:10FD30004F46C0B4061C83B000290AD0002A08D060
:10FD400017680920042F06D803B00CBC90469946CA
:10FD5000F0BD0E20F8E7141C0D1C99469C30311C98
:10FD60002A1C231C00F0C0FA0028EDD1236801935F
:10FD7000002E0BD14B46002BEBD04846291C3A1CD9
:10FD800001ABFFF747FE0028DED1019B2360002076
:10FD9000DAE7C04670B584B000280DD0002A0BD039
:10FDA000002B09D0089C002C06D0012403944C1E83
:10FDB000032C04D8092000E00E2004B070BD0E1CF6
:10FDC000041C1D1C131C03AA00F00AFB201C311C80
:10FDD00003AA2B1C00F004FB074B201C0093311CD2
:10FDE00003AA089B01F0B8F80028E6D1039B9E42C5
:10FDF000E3D00920E1E7C0464DFA0100F0B54F46D7
:10FE00004646C0B485B0002923D0002A21D01F1C4B
:10FE10001368161C994600230D1C041C039303ABA6
:10FE200098460093A420211C2A1C331C00F05AFC85
:10FE300000280FD1002C0DD1002F0AD0381C291C0E
:10FE40004A464346FFF7E6FD002803D1039B336093
:10FE500000E00E2005B00CBC90469946F0BDC046AF
:10FE600010B5041C82B0002A06D0002804D0032953
:10FE700004D0092002B010BD0E20FBE70378072054
:10FE8000B02BF7D1131C0122201C0192032101AADF
:10FE900000F094FA0028EDD1019B032BE9D1E9E7AA
:10FEA00038B5051C0C1C131C291C221CB02000F0AA
:10FEB0001BFA38BD10B5041C82B0002A06D00028F9
:10FEC00004D0032904D0092002B010BD0E20FBE7A6
:10FED00003780720B12BF7D1131C0122201C0192BB
:10FEE000032101AA00F06AFA0028EDD1019B032B3F
:10FEF000E9D1E9E738B5051C0C1C131C291C221C90
:10FF0000B12000F0F1F938BDF0B5041C83B00E202B
:10FF1000002C13D0002A11D0002B0FD01E1C002360
:10FF200001936B46981C70233768151C0380111CC5
:10FF300001AB3A1C00F030FA002801D003B0F0BD4C
:10FF4000201D291C3A1C01AB00F026FA0028F5D12F
:10FF5000A01D291C3A1C01AB00F0FEFC0028EDD1CD
:10FF6000019B3360EAE7C04670B5041C84B00028EA
:10FF700031D0002A2FD0002B2DD0186800282AD08D
:10FF8000089D0E20002D27D01D1C131C0122201CB3
:10FF9000039203AA0E1C00F011FA00281CD1124B88
:10FFA000201C0093311C03AA2B1C00F0D5FF002855
:10FFB00012D12B68002B11D0039B089A0133E4184F
:10FFC00014602A681188C918711A4E1EB14109209F
:10FFD0004942084000E00E2004B070BD089A13604A
:10FFE000039B591CF0E7C0462509020038B5051CE3
:10FFF0000C1C131C291C221CB22000F075F938BD02
:020000022000DC
:1000000070B582B000280AD0002A08D0002B06D094
:100010001C68002C03D0062904D0092000E00E2023
:1000200002B070BD0178692901D00720F8E7161CDD
:100030001D1C01230621019301AA331C041C00F09E
:100040008BF90028ECD13368012B02D0203B052B23
:10005000EBD8019B5A1CE35C002B00D12B600020E5
:10006000062ADDD00920DBE7F0B585B00193002931
:100070002AD0002A28D0161C0D1C041C17686920E1
:10008000211C2A1C331C00F02FF900281DD1002C44
:100090001BD10A9B002B17D0019B012B03D0203BC7
:1000A0000730052B11D8336801A80393291C3A1C8B
:1000B00003AB00F033F9002807D1019B252B0ED8A4
:1000C0001E4A9B00D3589F460E2005B0F0BD0A98EB
:1000D000291C3A1C03ABFDF7B9FD0028F5D1039BA1
:1000E00000203360F1E70A98291C3A1C03ABFDF7A6
:1000F0007FFDF2E70A98291C3A1C03ABFDF73CFD93
:10010000EBE70A98291C3A1C03ABFDF713FDE4E763
:100110000A98291C3A1C03ABFDF7C0FCDDE70A98DE
:10012000291C3A1C03AB00F075FCD6E70A98291C81
:100130003A1C03ABFDF772FCCFE7C046DC5B020064
:1001400010B5041C82B0002806D0002A04D0092073
:10015000042903D802B010BD0E20FBE72378023833
:10016000682BF7D1131C0122201C019201AA00F078
:10017000F3F8EFE7F0B5041C83B000280ED0002A96
:100180000CD0002B0AD01868002807D009200529B8
:1001900005D92078682804D0072000E00E2003B09D
:1001A000F0BD161C1D1C0123201C019301AA331C49
:1001B0000F1C00F0D1F80028F1D13368012B25D0B5
:1001C000202B33D0212B41D0222B4FD0232B5DD09D
:1001D000242B6BD0252BDFD101990B1CE35C013163
:1001E0000191002B0FD0201C391C01AA2B68FDF7B0
:1001F0003FFD0028D3D10199791A4F1EB94109203A
:100200004B421840CBE700232B60F5E701990B1C0C
:10021000E35C01310191002BF5D0201C391C01AAAF
:100220002B6800F01FFC0028E5D0B8E701990B1CF3
:10023000E35C01310191002BE5D0201C391C01AA9F
:100240002B68FDF70BFC0028D5D0A8E701990B1C03
:10025000E35C01310191002BD5D0201C391C01AA8F
:100260002B68FDF741FC0028C5D098E701990B1CCD
:10027000E35C01310191002BC5D0201C391C01AA7F
:100280002B68FDF769FC0028B5D088E701990B1CA5
:10029000E35C01310191002BB5D0201C391C01AA6F
:1002A0002B68FDF787FC0028A5D078E701990B1C87
:1002B000E35C01310191002BA5D0201C391C01AA5F
:1002C0002B68FDF7A7FC002895D068E710B5041C43
:1002D0000E20002907D0002A05D0131C5A300A1C12
:1002E000211C00F001F810BD30B5041C002A06D016
:1002F000002B04D01D680920042D02D830BD0E202B
:10030000FCE7080A51709070080C090ED070147048
:100310001171052200201A60F0E7C04630B5041CB8
:10032000002916D0002814D0002B12D01D680920F7
:10033000521B032A0ED922684919100A0A70487004
:10034000100C120E8870CA701A68002004321A60ED
:1003500000E00E2030BDC04630B5041E19D0002A82
:1003600017D0002B15D015680920491B032911D976
:10037000641961780802A1780904014320780143D7
:10038000E07800060143196013680020043313600D
:1003900000E00E2030BDC04630B51C68051C121BA5
:1003A0000920012A08D900202A880C192270120A73
:1003B00062701A6802321A6030BDC04630B51468E7
:1003C0000925091B012909D900250419617820781C
:1003D000090201431980136802331360281C30BDE1
:1003E00030B51468A51C8D4208D8041961782078AE
:1003F00009020143198013680233136030BDC046FF
:1004000030B51C68051C0920944205D000202A78CC
:100410000A551A6801321A6030BDC04630B51468FA
:10042000051C09208C4205D00020295D1970136835
:100430000133136030BDC04630B51468651C8D4271
:1004400004D8015D197013680133136030BDC046D4
:10045000F8B5069C2578AC461568A94210D0455DD4
:1004600025701668751C15602778A94208D00236D9
:10047000B14207D2002B21D0002200201A6000E0F8
:100480000920F8BD445D1660012CF3D1002B13D078
:100490001B68002B10D0BC45F2D3891B8F42EFD8CC
:1004A000141C81193A1C181C05F09DFA23680020C1
:1004B0009C4667442760E4E70E20E2E70020E0E77F
:1004C000F8B5069C0D1C2168061C581A012815D980
:1004D0005118280A0D7048702168023121608B4242
:1004E0000CD0371C781E8741FFB257542168481C36
:1004F0002060002F04D01B1A9D4203D90920F8BDAB
:100500000020FCE71018311C2A1C05F06CFA236847
:1005100000209C4665442560F1E7C046F8B5069C7E
:10052000278814680D1B012D15D9041965782478C6
:100530002D022C43069D2C801668B41C14602D8857
:10054000A14208D00336B14207D2002B21D00022AD
:1005500000201A6000E00920F8BD045D1660012C3F
:10056000F3D1002B13D01B68002B10D0AF42F2D375
:10057000891B8D42EFD8141C81192A1C181C05F008
:1005800032FA236800209C4665442560E4E70E208B
:10059000E2E70020E0E7C046F0B54F464646C0B46B
:1005A000051C0798002819D0002B17D018680028C0
:1005B00014D0146809200E1B022E10D9A71CB942B2
:1005C00011D32C19667820783602064307981760F5
:1005D00004880C20B44202D33C1C05E00E200CBC65
:1005E00090469946F0BD0026601C814224D32C5DC4
:1005F0001060002C20D0002E1AD0741EA4B201343A
:100600006400A44600241F68B846871CB9420CD376
:100610008146A94448464078070248460078384356
:100620004746385310680230106002346445EAD1FE
:10063000079B00201E80D2E7002200201A60CEE730
:10064000F8B5069C002C2ED02568002D2BD0002B51
:1006500029D01D68002D26D015684E1B012E24D9E7
:100660006E1CB14223D3455D1660002D1FD0256856
:100670008C1B2F88012C18D986197478367824029F
:1006800034432C801668B41C14602D88A1420CD011
:100690000336B14203D3045D1660012C0ED0002254
:1006A00000201A6000E00E20F8BD0920FCE70020C1
:1006B00020601168013111601860F5E71B68002B9C
:1006C000F1D0AF42F1D3891B8D42EED8141C8119B1
:1006D0002A1C181C05F087F9236800209C466544F5
:1006E0002560E1E7F0B5059C061C002A1CD0002B14
:1006F0001AD0002C18D018682768C51B0920042DB3
:1007000013D9781C2060D65520688446080A6244B4
:1007100011705070080C090E9070D1702268002082
:10072000043222601A6000E00E20F0BDF8B5069D8C
:100730002F68BB420CD0061C741EA641F6B2D655DB
:100740002C6801342C60002E0FD01B1B994201D95C
:100750000920F8BD0E1C011C1019321C05F043F9CC
:100760002B68002099192960F3E70020F1E7C046C3
:10077000F8B506AC278807AC258814688C4213D0DE
:10078000661CB14205D2002B21D0002200201A6045
:100790000BE0045D1660012CF5D1002B06D01B6820
:1007A000002B03D0BD4203D90920F8BD0E20FCE781
:1007B000891B8D42F8D8141C81192A1C181C05F0BD
:1007C00012F9236800209C4665442560EDE700206F
:1007D000EBE7C04670B5041C82B0002817D0002A91
:1007E00015D00698002812D0066809209B1B994254
:1007F0000ED80D1C9019211C2A1C05F0F4F8069B3C
:1008000000201B6859190193069B196000E00E2017
:1008100002B070BDF8B5041C0E20002C0BD0002ACD
:1008200009D0002B07D0201C1E1C151C0F1CFFF725
:10083000F5FD002800D0F8BD731C201C391C2A1CB3
:10084000FFF7ECFD0028F6D1B31C201C391C2A1C34
:10085000FFF7E4FD0028EED1F31C201C391C2A1CF4
:10086000FFF7DCFD0028E6D1331D201C391C2A1CB3
:10087000FFF7D4FD0028DED1731D201C391C2A1C73
:10088000FFF7CCFDD7E7C046F8B5041C0F1C161CBB
:100890001D1CFFF781FD002805D1A01C391C321C4E
:1008A0002B1CFFF7ADFDF8BDF8B5146809250C1B2E
:1008B000022C01D8281CF8BD0D1C1E1C141C071C82
:1008C000FFF78EFD291CB31C381C221CFFF7B4FD5A
:1008D0000025EFE738B51D680924521B0F2A01D8FF
:1008E000201C38BD1C1C0B1C1022011C581905F0C3
:1008F0007AF82368103323600024F1E738B51568CF
:100900000924491B0F2901D8201C38BD141C41198A
:100910001022181C05F067F82368103323600024A8
:10092000F2E7C046F8B5041C0E20002C0BD0002ABC
:1009300009D0002B07D0201C1D1C161C0F1CFFF714
:100940003DFD002800D0F8BDAB1C201C391C321C1A
:10095000FFF734FDF7E7C046F8B5061C0E20002966
:100960000BD0002B09D0002E07D0301C1D1C171CEB
:100970000C1CFFF711FD002800D0F8BDB01C211C95
:100980003A1C2B1CFFF708FD0028F6D12968328895
:100990007F1A0930BA42F0D86018311D05F023F8EB
:1009A0002A683388944663442B600020E5E7C046FC
:1009B000F0B5041C83B00E20002C0BD0002A09D007
:1009C000002B07D0201C1E1C151C0F1CFFF7F6FC6B
:1009D000002801D003B0F0BD0D4A331D0092201C49
:1009E000391C2A1C00F0B8FA0028F3D1331C201C53
:1009F000391C2A1C0833FDF781F90028EAD1331C81
:100A0000201C0C33391C2A1CFEF7E2FFE2E7C0462B
:100A100015080200F0B5041C83B00E2000290FD089
:100A2000002B0DD0002C0BD01E1C6B46D81D23783C
:100A3000171C0370331C0D1CFFF7E2FC002801D0CB
:100A400003B0F0BDA01C291C3A1C331C0134FFF775
:100A5000D7FC0028F4D1201C291C3A1C331CFFF7BA
:100A6000CFFCEDE7F8B5041C0E20002C0BD0002ABB
:100A700009D0002B07D0201C1D1C161C0F1CFFF7D3
:100A8000CDFC002800D0F8BDAB1C201C391C321C4A
:100A90000135FFF7C3FC0028F5D1201C391C321C9E
:100AA0002B1CFFF7BBFCEEE7F0B5041C85B00E2055
:100AB000002C11D01F1C002303930B33161C201C89
:100AC00003AA6B440D1CFFF7A9FC002804D16B4658
